:0400000004EF01F018
:100008004382FACF0DF0FBCF0EF0E9CF0FF0EACF25
:1000180010F0E1CF11F0E2CF12F0D9CF13F0DACF20
:1000280014F0F3CF15F0F4CF16F0F6CF17F0F7CFA2
:1000380018F0F8CF19F0F5CF1AF0F2A27CD0820EA2
:100048000A6EDE0EE82EFED70A2EFCD73F50D8A443
:100058005FD0010E3F6E8CAE02D0010E01D0000EB3
:10006800FF0A0A6E0A320A328C500A187F0B0A18E5
:100078008C6E414A422A41C001F042C002F0000E93
:10008800046E0A0E036EF2EC0BF001500210D8A4B5
:100098002DD0060E026E660E016E410E036E000E26
:1000A800046E020E056E000E066EA6EC0AF032D043
:1000B800010E026E230E016E410E036E000E046ED9
:1000C800020E056E000E066EA6EC0AF023D0000E96
:1000D800026EAA0E016E410E036E000E046E020E31
:1000E800056E000E066EA6EC0AF014D0010E41143F
:1000F8000A6E000E42140B6E0B50000AD8A40AD0E8
:100108000A50000AD8B4E3D7010AD8B4D1D702D02C
:10011800000E3F6EF1AC02D0010E01D0000EFF0AB6
:100128000A6E0A3A0A460A46F1500A18BF0B0A181C
:10013800F16EF29247D077A045D061CF79F00001F7
:100148007A6B0001D89079377A370001D8907937DF
:100158007A370001D89079377A3762CF0AF0050EDE
:100168000B6ED8900A320B2EFCD70A500001791377
:1001780065500F0B406E000E1C6E000E1B6E10D0EB
:10018800660E1B24D96E0F0E1C20DA6E710E1B240E
:10019800E16E000E1C20E26EDFCFE7FF1B4A1C2A2F
:1001A80040500A6E0B6A0A501B5C1C50800A0C6E89
:1001B8000B50800A0C58D8A0E3D7010E00017B6FC2
:1001C800609E77901AC0F5FF19C0F8FF18C0F7FFB6
:1001D80017C0F6FF16C0F4FF15C0F3FF14C0DAFF0E
:1001E80013C0D9FF12C0E2FF11C0E1FF10C0EAFF3F
:1001F8000FC0E9FF0EC0FBFF0DC0FAFF43921100CC
:04020800B0EF0BF058
:100F00000001000A006400E803102701001000003F
:100F1000010010303132333435363738396162638D
:100F20006465660049443D2530337820446174612E
:100F30003D25640000002D0E366E000E376E92D1F6
:100F4000250E3E18D8B409D029C0D9FF2AC0DAFF2F
:100F50003EC0DFFF294A2A2A85D1000E3D6E000ED1
:100F60003C6E000E3B6E03D03B842B4A2C2A2BC0D8
:100F7000F6FF2CC0F7FF0800F550300AD8B4F4D7BC
:100F80002BC0F6FF2CC0F7FF0800F5509AEC0CF0D0
:100F9000D8A035D0000E3D6E000E3C6E3CC01DF05A
:100FA0003DC01EF0000E206E0A0E1F6E62EC0CF0AB
:100FB0001DC03CF01EC03DF0D00E316EFF0E326EF3
:100FC0002BC0F6FF2CC0F7FF0800F550336E346AD3
:100FD000315033263250342233503C2634503D2297
:100FE0002B4A2C2A2BC0F6FF2CC0F7FF0800F55027
:100FF0009AEC0CF0D8A003D0D1D73B8E17D02BC0E1
:10100000F6FF2CC0F7FF2B4A2C2A0800F5CF3EF044
:101010003E50000AD8B432D1640AD8B407D00D0AC1
:10102000D8B404D0110AD8B4E8D71CD13BBE15D02F
:1010300036C0D9FF37C0DAFFDECF39F0DDCF3AF066
:10104000020E3626000E37223AAE44D0030E3B1273
:10105000396C3A1ED8B03A2A3DD036C0D9FF37C0D5
:10106000DAFFDECF39F0DDCF3AF0020E3626000E81
:10107000372230D0010E3E6E050E3E18D8B432D065
:101080003E50020D010EF324F66E0F0EF420F76EA3
:101090000900F550395C0900F5503A58D8A022D023
:1010A0003E2AEAD7010E3E6E040E3E18D8B41AD07E
:1010B0003E50020D0B0EF324F66E0F0EF420F76E69
:1010C0000900F550395C0900F5503A58D8A00AD00B
:1010D0003E2AEAD73B50800B000AD8B4CBD7800A0F
:1010E000D8B4E0D73C503D10D8B409D03BC031F063
:1010F000030E3116D8B403D03C06D8A03D06800EAE
:101100003EBE7F0E316E3C503E5C3D50800A3158F1
:10111000D8B007D03E503C5E000E3EBEFF0E3D5A9A
:1011200004D0000E3D6E000E3C6E3BA41ED03BC0B2
:1011300031F0030E3116D8B408D029C0D9FF2AC027
:10114000DAFF2D0EDF6E294A2A2A3C503D10D8B412
:101150002DD029C0D9FF2AC0DAFF300EDF6E294A10
:101160002A2A3C06D8A03D06F0D73C503D10D8B402
:101170000FD029C0D9FF2AC0DAFF200EDF6E294A1E
:101180002A2A3C06D8A03D063C503D10D8A4F1D7F1
:101190003BC031F0030E3116D8B408D029C0D9FFB6
:1011A0002AC0DAFF2D0EDF6E294A2A2A3EC038F007
:1011B00055D03850020D010EF324F66E0F0EF420B8
:1011C000F76E0900F5CF1FF00A00F5CF20F039C007
:1011D0001DF03AC01EF064EC0BF01DC024F01EC0E0
:1011E00025F0000E276E0A0E266ED1EC0BF024506F
:1011F000300F3E6E2BD039C01DF03AC01EF0385073
:10120000020D0B0EF324F66E0F0EF420F76E09009C
:10121000F5CF1FF00A00F5CF20F064EC0BF01D5065
:101220000F0B356E3550010D130EF324F66E0F0EB5
:10123000F420F76E0800F5CF3EF008D03B50800B4D
:10124000000AD8B4B6D7800AD8B4D5D729C0D9FFF8
:101250002AC0DAFF3EC0DFFF294A2A2A380638288A
:10126000D8A4ECD72BC0F6FF2CC0F7FF2B4A2C2AB2
:101270000800F5CF3EF03E50D8A462D629C0D9FF71
:101280002AC0DAFF000EDF6E1200938693946F502F
:101290001F0B80096F6E6E38E832070B040AD8A462
:1012A000FAD73F0E72160E0143914393439543873D
:1012B0004389439B3F0E0E0143170E01448F0E01DD
:1012C0004451C70B1809446F0E014491449344954F
:1012D0000E014551F80B0109456F0E01F8690E0129
:1012E000F98BF98DF98F0E01FC690E01FD8BFD8DD7
:1012F000FD8F0E01F5970E01F1970E01ED970E018E
:10130000E9970E01E5970E01E197240E0E01E06FBB
:10131000660E0E01E46F0E01E1511F0B6009E16FD3
:101320000E01E5511F0B6009E56F000E0E01F46F11
:10133000F4CEF0FEF0CEECFEECCEE8FE0E01F55160
:101340001F0B0009F56F0E01F539E832070B1D6E12
:101350001D3A1D460E01F1511D181F0B1D180E01DF
:10136000F16F0E01F139E832070B1E6E1E3A1E4670
:101370000E01ED511E181F0B1E180E01ED6F0E0110
:10138000ED39E832070B1F6E1F3A1F460E01E95177
:101390001F181F0B1F180E01E96F609A609C0F0148
:1013A000308D0F01309B0F01309F609E60946F9ACB
:1013B0006F9C6F9E6E38E832070B0009D8A4FAD7ED
:1013C000000E00017B6F779076801200DEEC0CF04F
:1013D00088EC0CF045EC09F0010E8C6E38EC0BF04B
:1013E000600E2A6E000E2B6E000E2C6EF0EC0AF0D2
:1013F000F28CF28E000E00017C6F000E7D6F000EED
:101400007E6F000E7F6F000E0001816F140E806FE3
:10141000010E00017C27000E7D237E237F23000127
:101420007B51D8B420D0600E296E000E2A6E240E97
:101430002B6E0F0E2C6E79C02DF07AC02EF071C07D
:101440002FF072C030F09BEC07F0010E31EC0CF085
:10145000600E2A6E000E2B6E010E2C6EF0EC0AF060
:10146000000E00017B6F00017FBFD2D700017F51CA
:101470000BE1160E00017C5D160E00017D59050E74
:1014800000017E59D8A0C4D7060E1E6E660E1D6ED2
:10149000800E1F6E000E206E020E216E000E226E58
:1014A0005CEC0AF0000E00017C6F000E7D6F000EF8
:1014B0007E6F000E7F6FACD70F0120B712000F01B7
:1014C00020512218FC0B22180F01206F1DC023F0A1
:1014D0001EC024F024342432233224342432233214
:1014E00024342432233223500F01216F1DC023F0F6
:1014F000070E2316233A23460F01225123181F0BF0
:1015000023180F01226F0F01229721500F0B0F019B
:10151000256F000E256E13D02550010DF3501F24AA
:10152000D96EF4502020DA6E2550010D260EF324DA
:10153000E16E0F0EF420E26EDFCFE7FF252A215087
:10154000255CD8A0E9D70F01208712000F0120B732
:1015500012000F0120510618FC0B06180F01206F16
:1015600001C007F002C008F008340832073208341E
:101570000832073208340832073207500F01216F52
:1015800001C007F0070E0716073A07460F01225160
:1015900007181F0B07180F01226F0F012297055024
:1015A0000F0B0F01256F000E096E13D00950010DAE
:1015B000F3500324D96EF4500420DA6E0950010D63
:1015C000260EF324E16E0F0EF420E26EDFCFE7FF6C
:1015D000092A0550095CD8A0E9D70F01208712001D
:1015E000010E2C6401D012002CC023F0246A000EDE
:1015F000266E000E256E8DEC0BF032D02AC0D9FF7E
:101600002BC0DAFF0A0EDE18D8A407D02C2A020E4F
:101610002C18D8A402D0000E2C6E2AC0D9FF2BC0E3
:10162000DAFF0D0EDE18D8B408D02AC0D9FF2BC0BF
:10163000DAFF0A0EDE18D8A40AD02CC023F0246AE0
:10164000000E266E000E256E8DEC0BF007D02AC022
:10165000D9FF2BC0DAFFDF50B8EC0CF02A4A2B2A56
:101660002AC0D9FF2BC0DAFFDF50D8B41200C6D78A
:10167000380E246E4AEC0CF0820E236EDE0EE82E3D
:10168000FED7232EFCD72450D7EC0CF0850EE82E85
:10169000FED700F00C0ED7EC0CF0850EE82EFED72E
:1016A00000F0010ED7EC0CF0170E236E120EE82E90
:1016B000FED7232EFCD700D0060ED7EC0CF0850EFB
:1016C000E82EFED700F01200000E226E000E216EF2
:1016D0001F502010D8B41CD0010E236E04D0D89017
:1016E0001F362036232A20AEFAD7D890213622364C
:1016F0001F501D5C20501E58D8A005D01F501D5EE5
:1017000020501E5A2180D89020321F32232EEDD730
:1017100021C01DF022C01EF0120024BE120026BE01
:10172000120024BE06D024501AE1020E235CD8B069
:10173000120026BE06D0265012E1100E255CD8B04D
:1017400012002350A9EC0CF0276E27502524286E98
:10175000000E2620296E2850800FC3EC0CF01200DA
:1017600000EE71F00B0EEE6AE806FDE1426A416A96
:10177000406A3F6A9C0EF66E190EF76E000EF86E08
:1017800000EE60F010EE11F00900F5CFEEFFE5502D
:10179000E150FAE143904392000EF86E0001E6EF4B
:1017A00009F026502710D8B418D0010E286E04D0A6
:1017B000D89026362736282A27AEFAD72650245C1A
:1017C00027502558D8A004D02650245E2750255AEB
:1017D000D89027322632282EF1D724C024F025C0F5
:1017E00025F0120003500410D8B418D0010E056E75
:1017F00004D0D89003360436052A04AEFAD7035035
:10180000015C04500258D8A004D00350015E04507B
:10181000025AD89004320332052EF1D701C001F0EC
:1018200002C002F01200206E000E216E1F50D8B4CC
:1018300002D0800E216E21C01DF0120E75EC0CF04E
:1018400020C01DF0130E75EC0CF0215040091D6EE8
:10185000120E75EC0CF021C01DF0120E75EC0CF0A0
:1018600012002B6E000E2A6E010E2B6401D01200A6
:101870002BC023F0246A000E266E000E256E8DEC20
:101880000BF004D0200EB8EC0CF02A2A0F0E2A64BC
:10189000F9D71200929489849496949A210EC66E78
:1018A000C78C9E96000E1D6E000E75EC0CF0000E9F
:1018B0001D6E010E75EC0CF0000E1D6E120E75EC17
:1018C0000CF012001D501F02F3CF21F0F4CF22F0D4
:1018D0001D502002F35022261E501F02F3502226D4
:1018E00021C01DF022C01EF012001E6E8994400E11
:1018F000C96E9EA6FED79E961EC0C9FF9EA6FED7A5
:101900009E961DC0C9FF9EA6FED79E968984120092
:101910009B8C010E0F015D6F000E0F015C6F000EBE
:10192000C16EBA0EC06ED09E010E936EF19CF29203
:10193000F28812001F6E000E1E6E3A0E1F6005D058
:101940002F0E1F6402D0010E1E6E1EC01DF01D3032
:1019500012001E6E1EB005D01E500A0DF3CF1DF0F2
:1019600005D01E500A0DF350360F1D6E1D5012008B
:10197000226EE9EC0CF0010E1F6E225013EC0CF0FD
:10198000E4EC0CF01200226EE9EC0CF0000E1F6E7D
:10199000225013EC0CF0E4EC0CF0120052756E6E59
:1019A000696E670000000000000000000000226E69
:1019B000000E1F6E225013EC0CF01200000E8C6E05
:1019C000000E956E92801200850EE82EFED700F074
:0419D00012001200EF
:020000040020DA
:08000000FFFFFFFFFFFFFFFF00
:020000040030CA
:0E0000001D137F7CFF8F91FF0FC00FE00F409C
:00000001FF
