:0400000053EF00F0CA
:0E0008004C82FACF97F0FBCF98F0A6EF13F0E2
:100018004C80D8CF01F0E8CF02F0E0CF03F0FACF60
:1000280004F0FBCF05F0E9CF06F0EACF07F0E1CF07
:1000380008F0E2CF09F0D9CF0AF0DACF0BF0F3CF0E
:100048000CF0F4CF0DF0F6CF0EF0F7CF0FF0F8CF9D
:1000580010F0F5CF11F011C0F5FF10C0F8FF0FC078
:10006800F7FF0EC0F6FF0DC0F4FF0CC0F3FF0BC086
:10007800DAFF0AC0D9FF09C0E2FF08C0E1FF07C0E4
:10008800EAFF06C0E9FF05C0FBFF04C0FAFF03C092
:10009800E0FF02C0E8FF01C0D8FF4C901000F5EF68
:0200A80015F051
:100F000000BD0F090F910F6F0F34034D006900638F
:100F10000072006F006300680069007000200054D8
:100F2000006500630068006E006F006C006F006772
:100F3000007900200049006E0063002E00050109C1
:100F400002A1010901A100050919012903150025C4
:100F5000019503750181029501750581010501095E
:100F60003009311581257F750895028106C0C009B9
:100F7000022200010100C032090400000103010245
:100F8000000921110100012232000705810303003D
:100F9000011A034900200041004D00200054005771
:100FA000004F0047004F004F0044001201000200B4
:100FB000000008D804000003000102000104030936
:100FC00004555342204D6F7573652044656D6F0065
:100FD000000000018E05D8A411D000018C511F0B18
:100FE0000009D8A40BD000016C8F030E00018D19ED
:100FF000D8A402D0010E01D0000E3B6E00018E512C
:10100000D8A4120000018C511F0B020AD8A41200B0
:10101000000190510F0B0009D8B41200000190514B
:101020000F0B266E020E26601200200E000183199F
:10103000D8A4120000016C8F000190BF1BD00001EA
:1010400090510F0B266E2650020D730EF324D96EAD
:10105000000EF420DA6EDECF2AF0DDCF2BF0000197
:1010600090510F0B266E2650010D7C0EF324D96E85
:10107000000E1AD0000190510F0B266E2650020D63
:101080006F0EF324D96E000EF420DA6EDECF2AF054
:10109000DDCF2BF0000190510F0B266E2650010D75
:1010A0007A0EF324D96E000EF420DA6EDF50296E2A
:1010B00029B002D02A9401D02A84000190BF0BD01D
:1010C000000190510F0B266E2650020D730EF32473
:1010D000D96E000E0AD0000190510F0B266E2650DB
:1010E000020D6F0EF324D96E000EF420DA6E2AC0C2
:1010F000DEFF2BC0DDFF030E00018D19D8A429D01F
:101100002AC0D9FF2BC0DAFFDFAE1CD0000190BF90
:101110000BD0000190510F0B266E2650010D7C0E56
:10112000F324D96E000E0AD0000190510F0B266EE9
:101130002650010D7A0EF324D96E000EF420DA6EDB
:101140000001DF822AC0D9FF2BC0DAFF840EDF1234
:101150001200040E2A1A2AC0D9FF2BC0DAFFDFAE14
:101160001BD02AC0D9FF2BC0DAFF7F0EDF162AC0A2
:10117000D9FF2BC0DAFF000EDB8C000E1F6E050EB0
:101180001E6E2AC020F02BC021F0000E236E020E2E
:10119000226E65EC13F006D02AC0D9FF2BC0DAFF0F
:1011A000000EDB8C040E2A1A29B206D02AC0D9FF01
:1011B0002BC0DAFFDFAE31D0000190BF0BD00001B1
:1011C00090510F0B266E2650010D7C0EF324D96E24
:1011D000000E0AD0000190510F0B266E2650010D13
:1011E0007A0EF324D96E000EF420DA6E0001DF923D
:1011F0002AC0D9FF2BC0DAFF3B0EDF16000E1F6E90
:10120000050E1E6E2AC020F02BC021F0000E236EAA
:10121000020E226E65EC13F006D02AC0D9FF2BC057
:10122000DAFF3B0EDF16000190510F0B266E2650A1
:10123000010D260EF324276E0F0EF420286E27C012
:10124000D9FF28C0DAFFFE0EDF161200000E0001E3
:10125000776F81B00BD00001805100018111D8A4BB
:1012600005D0000E0001816F010E806F81A00BD0B0
:101270000001800500018111D8A405D0000E0001F5
:10128000816F020E806F81B00CD0020E00018019B8
:1012900000018111D8A405D0000E0001816F030E5A
:1012A000806F81A00CD0030E000180190001811114
:1012B000D8A405D0000E0001816F000E806F81B4AC
:1012C00002D00001778180BA02D00001778300014B
:1012D000805100018111D8B406D0000180050001C1
:1012E0008111D8A419D022EC16F0000E0001A5251A
:1012F0000001A76FFE0E0001A6210001A86F000EDD
:101300000001AA6F800EA96F2EEC11F00001A75109
:101310000001786F000E26D0020E00018019000136
:101320008111D8B407D0030E00018019000181118A
:10133000D8A41AD0000E0001786F22EC16F0000E2F
:101340000001A5250001A76FFE0E0001A6210001E6
:10135000A86F000E0001AA6F800EA96F2EEC11F08D
:101360000001A7510001796F00017E5100017F113A
:10137000D8B413D07EC0D9FF7FC0DAFF0001DFAE42
:1013800004D00001AF6BAF2B02D00001AF6B0001A6
:10139000AF510001B06FB16B05D0000E0001B16F0D
:1013A000000EB06F0001B0510001B111D8A41200BD
:1013B00077C094F078C095F079C096F0010E0001E6
:1013C000A56F940E0001A66F000E0001A76F030E1B
:1013D0000001A86F010EC8EC10F0A5C07EF0A6C0F9
:1013E0007FF01200A098000E636E000E626E000E79
:1013F0000F01266F270E0001A56F0F0E0001A66FCB
:10140000000E0001A86F000EA76F000E0001AA6F6A
:10141000010EA96F5BEC15F0160E0F01396F9F0ED0
:101420000F01376F7B0E0F01366F000E0001AD6F9D
:10143000070E0001AD6501D010D00001AD51040DC3
:10144000000EF324D96E0D0EF420DA6EDE6ADE6A29
:10145000DE6ADD6A0001AD2BEBD7658C000E0F0153
:10146000386F6598659C0CD06296000E00016C6F19
:10147000000E0001636F000E0001656F000E646FC7
:1014800062B6F2D7010E3F6E010E406E000E3C6E4A
:10149000000E3D6E000E0001826F000E0001AD6F68
:1014A000010E0001AD6501D033D00001AD51020D38
:1014B0006F0EF324D96E000EF420DA6E000EDE6E8D
:1014C000000EDD6E0001AD51020D730EF324D96ED6
:1014D000000EF420DA6E000EDE6E000EDD6E0001EE
:1014E000AD51010D7A0EF324D96E000EF420DA6EA0
:1014F000000EDF6E0001AD51010D7C0EF324D96E9C
:10150000000EF420DA6E000EDF6E0001AD2BC8D79E
:10151000080E00016F6F0D0E0001706F160E0F01A7
:10152000266F000E0D01036F8C0E026F080E0D0169
:10153000016F840E0D01006F000E476E000E00015A
:10154000836F120000018305D8B465BA09D0000E7C
:10155000626E0F0136810F013689020E0001836F22
:1015600062A406D00F0136A503D0629475EC15F085
:1015700065A202D0A198120062A00AD00F0136A184
:1015800007D049EC0BF0A088040E0001836F629035
:1015900062A806D00F0136A903D08EEC15F0629830
:1015A00062AC19D00F0136AD0ED0000E1F6E730E57
:1015B0001E6E000E206E000E216E000E236E010EB8
:1015C000226E65EC13F0629C4150D8A44106415054
:1015D000D8B4ECEC11F062AA04D00F0136BB3EEC9B
:1015E00015F062A212D00F0136A30FD07F0E1F6E2E
:1015F0001E68000E206E000E216E000E236E010E7E
:10160000226E65EC13F0000E636E040E0001836120
:1016100002D0A19812000F0136A739D0000E2F6E0C
:10162000030E2F6401D033D062A631D064CF49F0CD
:101630004930E832E8320F0B436E629649B407D066
:101640004350010D7C0EF324D96E000E06D043509A
:10165000010D7A0EF324D96E000EF420DA6E00012B
:10166000DF704350D8A403D061EC10F00ED0000E10
:101670001F6E720E1E6E490E206E000E216E000E41
:10168000236E000E226E65EC13F02F2AC9D7A198A5
:101690001200A098000E636E000E626E000E0F0125
:1016A000266F270E126E0F0E136E000E156E000EB3
:1016B000146E000E176E010E166EA4EC15F0160EC9
:1016C0000F01396F9F0E0F01376F7B0E0F01366FC1
:1016D000000E1A6E070E1A6401D00ED01A50040DB7
:1016E000000EF324D96E0D0EF420DA6EDE6ADE6A87
:1016F000DE6ADD6A1A2AEED7658C000E0F01386F9C
:101700006598659C0CD06296000E00016C6F000E0F
:101710000001636F000E0001656F000E646F62B61A
:10172000F2D7010E3F6E010E406E000E3C6E000EB1
:101730003D6E000E0001826F000E1A6E010E1A64DB
:1017400001D02ED01A50020D6F0EF324D96E000E68
:10175000F420DA6E000EDE6E000EDD6E1A50020D01
:10176000730EF324D96E000EF420DA6E000EDE6ED6
:10177000000EDD6E1A50010D7A0EF324D96E000EA4
:10178000F420DA6E000EDF6E1A50010D7C0EF32489
:10179000D96E000EF420DA6E000EDF6E1A2ACED754
:1017A000080E00016F6F0D0E0001706F160E0F0115
:1017B000266F000E0D01036F8C0E026F080E0D01D7
:1017C000016F840E0D01006F000E476E000E0001C8
:1017D000836F1200800E00018C19D8A41200C00E75
:1017E00000016C6F8AD0AB0E0001696F0F0E000113
:1017F0006A6F000E00016E6F120E6D6F1200000115
:101800008E51020D070EF324F66E0F0EF420F76EC4
:10181000F86A000EF8220900F5CF69F00A00F5CF4A
:101820006AF0020E00016925126E000E00016A21A5
:10183000136E12C0F6FF13C0F7FF000EF86E0E0E07
:10184000F76403D00800F55005D0F6CFE9FFF7CFD5
:10185000EAFFEF5000016D6F030E00016925126E63
:10186000000E00016A21136E12C0F6FF13C0F7FFCD
:10187000000EF86E0E0EF76403D00800F55005D088
:10188000F6CFE9FFF7CFEAFFEF5000016E6F1200CD
:10189000030E00018E6129D000018E51020D010E50
:1018A000F324F66E0F0EF420F76EF86A000EF8229D
:1018B0000900F5CF69F00A00F5CF6AF069C0F6FFBC
:1018C0006AC0F7FF000EF86E0E0EF76403D0080032
:1018D000F55005D0F6CFE9FFF7CFEAFFEF50126ED3
:1018E000125000016D6F6E6B1200000E00016C6FE4
:1018F0001200000E00016C6F120000018F51010AEE
:10190000D8B471D7030AD8B47AD7010AD8B4C0D7EB
:10191000F0D7010E0001B46501D01200B4C0ABF0E5
:101920000001AC6B000E0001AE6F000EAD6FDEEC7F
:1019300013F068D0B2C0F6FFB3C0F7FF000EF86E28
:101940000E0EF76403D00800F55005D0F6CFE9FF7E
:10195000F7CFEAFFEF500A0AD8A40AD00001B42B4F
:10196000020E0001B419D8A403D0000E0001B46F18
:10197000B2C0F6FFB3C0F7FF000EF86E0E0EF764AC
:1019800003D00800F55005D0F6CFE9FFF7CFEAFF06
:10199000EF500D0AD8B414D0B2C0F6FFB3C0F7FFB1
:1019A000000EF86E0E0EF76403D00800F55005D057
:1019B000F6CFE9FFF7CFEAFFEF500A0AD8A40CD020
:1019C000B4C0ABF00001AC6B000E0001AE6F000EB6
:1019D000AD6FDEEC13F013D0B2C0F6FFB3C0F7FF6B
:1019E000000EF86E0E0EF76403D00800F55005D017
:1019F000F6CFE9FFF7CFEAFFEF5006EC16F0000153
:101A0000B24BB32BB2C0F6FFB3C0F7FF000EF86EB7
:101A10000E0EF76403D00800F55005D0F6CFE9FFAD
:101A2000F7CFEAFFEF500009D8B4120083D720EEB9
:101A300001F03450D9263550DA22DF50156E15509A
:101A40000001645D000E6559D8A064C015F0155002
:101A5000126E136A121E131E124A132A00016451D9
:101A600012240001646F0001655113200001656FAD
:101A7000000E146E12D01450010D840EF324D96E92
:101A8000000EF420DA6E60C0E1FF61C0E2FFDFCF3C
:101A9000E7FF0001604B612B142A1550145CD8A09D
:101AA000EAD70001645100016511D8B426D020EEB8
:101AB00001F03650D9263750DA22080EDF6E20EEBC
:101AC00002F03650D9263750DA22840EDE6E000E30
:101AD000DD6E34C0D9FF35C0DAFFDFBC07D036C0B9
:101AE000D9FF37C0DAFFC80EDF6E120036C0D9FF4B
:101AF00037C0DAFF880EDF6E120020EE01F036509C
:101B0000D9263750DA22080EDF6E20EE02F036506A
:101B1000D9263750DA228C0EDE6E000EDD6E36C00E
:101B2000D9FF37C0DAFF840EDF6E0001639F3E509D
:101B3000D8A41200ECEC11F0120000018C511F0B24
:101B4000E806D8A4120000019051D8A41200060E95
:101B500000018D19D8B41FD027D04704D8A424D0B1
:101B6000810E0001696F0F0E00016A6F000E000107
:101B70006E6F090E0ED0C00E00016C6F15D03D0EB9
:101B80000001696F0F0E00016A6F000E00016E6F99
:101B9000320E6D6FF0D700018F51210AD8B4DDD716
:101BA000030AD8B4ECD7010A00018C39E832030BE0
:101BB000E806D8A412002AD04B0E0001696F000E6F
:101BC00000016A6F000E00016E6F010E6D6FC10E95
:101BD00000016C6F1200800E00016C6F8FC04BF023
:101BE00012004A0E0001696F000E00016A6F000EBC
:101BF00000016E6F010E6D6F810E00016C6F12009F
:101C0000800E00016C6F8EC04AF0120000018D51F1
:101C1000010AD8B41200030AD8B4CED7010AD8B446
:101C2000E0D70A0AD8B41200030AD8B4D4D7010AFC
:101C3000D8A41200E5D700018C39E832030B000963
:101C4000D8A4120050D000016C8F080E0001836FE1
:101C50001200EAEC0BF0120086EC0FF01200470EB7
:101C60000001696F000E00016A6F00016C81010EB6
:101C700000016D6F00016C8F12008DEC11F01200ED
:101C8000E9EC07F0120000019051010D480EF32419
:101C90000001696F000EF42000016A6F00016C8181
:101CA000010E00016D6F00016C8F120000016C8F3E
:101CB00000019051010D480EF324D96E000EF4205E
:101CC000DA6E8EC0DFFF1200000E1F6E020E1E6E57
:101CD000000E206E000E216E000E236E000E226E8E
:101CE00065EC13F0120000018D51000AD8B4C5D77D
:101CF000010AD8B4C5D7020AD8B4C2D7060AD8B4E4
:101D0000A2D7030AD8B4A5D7010AD8B4DDD70F0AE1
:101D1000D8B4A5D7010AD8B49FD7030AD8B4B3D78B
:101D2000010AD8B4C3D7070A120030503110D8A422
:101D300004D0270E316E100E306E3006D8A031065A
:101D400065A218D030503110D8A412008DB004D044
:101D50000001A56BA52B02D00001A56B8D500001E1
:101D6000A519FE0BA5198D6E8DA002D08D821200D3
:101D70008D92120000018351D8A403D08D908D92D2
:101D8000120000018305D8A403D08D808D8212003B
:101D9000020E00018319D8A403D08D808D92120009
:101DA000040E00018319D8A403D08D908D821200F7
:101DB000100E00018319D8A414D030503110D8A4CB
:101DC00012008DB004D00001A56BA52B02D000013C
:101DD000A56B8D500001A519FE0BA5198D6E8D9276
:101DE0001200200E00018319D8A4120030503110C7
:101DF000D8A412008DB004D00001A56BA52B02D091
:101E00000001A56B8D500001A519FE0BA5198D6E63
:101E10008DA002D08D9212008D821200080E146ED9
:101E200000016E5111E1080E00016D5DD8B00CD0BB
:101E30006DC014F04650D8A402D0010E04D0460460
:101E4000D8A402D0020E466E1450126E136A121EEF
:101E5000131E124A132A00016D51122400016D6FE6
:101E600000016E51132000016E6F000120EE01F0A1
:101E70006F51D9267051DA2214C0DFFF840E386EFC
:101E8000000E396E00016CA11DD03CD069C0F6FF78
:101E90006AC0F7FF000EF86E38C0D9FF39C0DAFF0C
:101EA0000E0EF76403D00800F55005D0F6CFE9FF19
:101EB000F7CFEAFFEF50DF6E0001694B6A2B384A1B
:101EC000392A14061450D8B41200E0D769C0F6FFBE
:101ED0006AC0F7FF000EF86E38C0D9FF39C0DAFFCC
:101EE0000E0EF76403D00800F55005D0F6CFE9FFD9
:101EF000F7CFEAFFEF50DF6E0001694B6A2B384ADB
:101F0000392A14061450D8B41200E0D700016C8F9F
:101F1000270E126E0F0E136E000E156E000E146E4D
:101F2000000E176E010E166EA4EC15F0000E126E68
:101F30000D0E136E000E156E000E146E000E176E51
:101F4000200E166EA4EC15F0658C000E266E010EA8
:101F5000266401D016D02650010D7A0EF324D96ED6
:101F6000000EF420DA6E000EDF6E2650010D7C0E9E
:101F7000F324D96E000EF420DA6E000EDF6E262AEE
:101F8000E6D7480E126E000E136E000E156E000E90
:101F9000146E000E176E010E166EA4EC15F0659C03
:101FA000080E00016F6F0D0E0001706F000E346E91
:101FB0000D0E356E34C036F035C037F08EC047F0A8
:101FC0004750D8A404D0100E0001836F1200000EF9
:101FD0001F6E010E1E6E470E206E000E216E000E4B
:101FE000236E010E226E65EC13F0200E0001836F4C
:101FF0001200659800016CBF2DD0000163AF0BD0BB
:10200000020E426E3D50D8B422EC13F0000E406E2A
:10201000000E3F6E120020EE01F03650D9263750E8
:10202000DA22080EDF6E20EE02F03650D926375045
:10203000DA228C0EDE6E000EDD6E36C0D9FF37C0A0
:10204000DAFF8C0EDF6E6FC0D9FF70C0DAFF840E2E
:10205000DF6E120000018CAF10D0010E426E3C50BA
:10206000D8B422EC13F0000E406E000E3F6E3E50CE
:10207000D8A41200ECEC11F01200020E426E20EE19
:1020800001F03650D9263750DA22080EDF6E20EEE6
:1020900002F03650D9263750DA228C0EDE6E000E52
:1020A000DD6E36C0D9FF37C0DAFF840EDF6E000E5A
:1020B000406E000E3F6E3E50D8A41200ECEC11F0C2
:1020C00012002D0E416E49C02CF0FD0E2C16D8A426
:1020D00057D049C02CF0D8902C323F0E2C162C50E3
:1020E000040D000EF324346E0D0EF420356E34C052
:1020F00036F035C037F0040E361A34C0D9FF35C07B
:10210000DAFFDF30E8320F0B0D0AD8A436D0000E0C
:102110002E6E070E2E6401D023D020EE02F0345034
:10212000D9263550DA22DECF2CF0DDCF2DF02CC0B1
:10213000D9FF2DC0DAFF2E50010D8C0EF324E16E75
:10214000000EF420E26EDFCFE7FF20EE02F0345005
:10215000D9263550DA22DE2A000EDD222E2AD9D7E2
:1021600020EE02F03450D9263550DA228C0EDE6E85
:10217000000EDD6EDBEC12F012006EEC14F01200BB
:102180004950FD0B040AD8A4120042EC12F01200D0
:102190000001A96F0001A5510001D8B408D00001C9
:1021A000A951020D6F0EF324D96E000E07D0000165
:1021B000A951020D730EF324D96E000EF420DA6ECD
:1021C000DECFAAF0DDCFABF00001AA510001AB11C8
:1021D000D8A407D0000E0001A56F000E0001A66F65
:1021E0001200000120EE02F0AA51D926AB51DA22EA
:1021F000A6C0DEFFA7C0DDFF000120EE01F0AA515E
:10220000D926AB51DA22A8C0DFFFAAC0D9FFABC0E4
:10221000DAFF400EDF16AAC0D9FFABC0DAFF880E86
:10222000DF120001A5510001D8B408D00001A95166
:10223000020D6F0EF324D96E000E07D00001A951D4
:10224000020D730EF324D96E000EF420DA6E040E24
:10225000DF1AAAC0A5F0ABC0A6F01200000E000164
:10226000AC6F0001AAAF08D00001A96DAA1FD8B0B9
:10227000AA2B010E0001AC6F0001A8AF08D000012D
:10228000A76DA81FD8B0A82B010E0001AC1B000E33
:102290000001AE6F000EAD6F0001A9510001AA113F
:1022A000D8B42CD0010E0001AB6F06D00001D8903D
:1022B000A937AA370001AB2B0001AAAFF7D700015D
:1022C000D890AD37AE370001A9510001A75D0001DC
:1022D000AA510001A859D8A00AD00001A9510001B3
:1022E000A75F0001AA510001A85B0001AD810001B8
:1022F000D890AA33A9330001AB2FE1D70001AC512C
:102300000001D8B405D00001AD6DAE1FD8B0AE2B22
:10231000ADC0A7F0AEC0A8F01200000E0001846F9F
:10232000000E0001856F3DD000016C8F000184819B
:102330003B04D8A442D0000184833FD000016C8FBD
:102340003CD000016C8F000190BF0BD00001905178
:102350000F0B126E1250020D730EF324D96E000E85
:102360000AD0000190510F0B126E1250020D6F0E29
:10237000F324D96E000EF420DA6EDECF13F0DDCF39
:1023800014F013C0D9FF14C0DAFFDFAE16D013C0AB
:10239000D9FF14C0DAFFDFA410D0010E0001846F52
:1023A0000CD000018C511F0B000AD8B4BDD7010A14
:1023B000D8B4C4D7030AD8B4C4D700016CAF120094
:1023C000840E0001696F000E00016A6F00016C81CC
:1023D000020E00016D6F12003F50D8A41200010ED2
:1023E0003F6E4050D8A41200010E406E020E4218FB
:1023F000D8A410D0000120EE01F06F51D926705101
:10240000DA22000EDF6E6FC0D9FF70C0DAFFC80E8F
:10241000DF6E12004204D8A41200000E3A6E20EEC5
:1024200001F03450D9263550DA22080EDF6E20EE46
:1024300002F03450D9263550DA228C0EDE6E000EB2
:10244000DD6E34C0D9FF35C0DAFF840EDF6E010EB9
:102450003A6E20EE01F03650D9263750DA22080EB7
:10246000DF6E20EE02F03650D9263750DA228C0E7D
:10247000DE6E000EDD6E36C0D9FF37C0DAFF800E8B
:10248000DF6E12006FC0D9FF70C0DAFF000EDFBC34
:10249000010E156E040E00016F1B080E000183195A
:1024A000D8A40BD08EC038FF0F013851D8B402D059
:1024B000100E01D0040E0001836F4204D8A429D06D
:1024C000000120EE02F06F51D9267051DA22840EFD
:1024D000DE6E000EDD6E0EEC0FF0020E4618D8A474
:1024E00007D06FC0D9FF70C0DAFF840EDF6E120014
:1024F0001550D8A407D06FC0D9FF70C0DAFFC80E3E
:10250000DF6E12006FC0D9FF70C0DAFF880EDF6E79
:102510001200000163AF02D00001639F000E426E03
:102520001200176E000E186E0D0E196E1250136EFB
:10253000146AD890133614361750156E166AD89050
:1025400015361636D89015361636135015261450F3
:102550001622D89015361636D890153616361550E0
:1025600018261650192218C0D9FF19C0DAFFDF9EAD
:102570001250D8A407D01750020D730EF324D96E51
:10258000000E06D01750020D6F0EF324D96E000E08
:10259000F420DA6E18C0DEFF19C0DDFF18C0D9FFC5
:1025A00019C0DAFFDF9C20EE04F01850D92619502C
:1025B000DA22DF8C1200000E466E000E3E6E000E18
:1025C0003C6E000E3D6E000E3A6E000E426E6FC005
:1025D000D9FF70C0DAFF7F0EDF16040E00016F1BFB
:1025E0006FC0D9FF70C0DAFF7F0EDF16040E000146
:1025F0006F1B36C0D9FF37C0DAFF7F0EDF16000E23
:1026000000016C6F000E00016E6F000E6D6F000E0A
:102610000001636F000E0001656F000E646F1BEC1C
:102620000EF0000E1F6E030E1E6E000E206E000ECA
:10263000216E000E236E000E226E65EC13F0F9EC95
:102640000FF01200000E3C6E000E3D6E020E42189E
:10265000D8A419D020EE01F03650D9263750DA220E
:10266000080EDF6E20EE02F03650D9263750DA22FF
:10267000840EDE6E000EDD6E36C0D9FF37C0DAFF85
:10268000C80EDF6E120000016D510001925D000165
:102690006E5100019359D8B004D092C06DF093C030
:1026A0006EF00EEC0FF0000120EE02F06F51D92613
:1026B0007051DA22840EDE6E000EDD6E6FC0D9FF1F
:1026C00070C0DAFFC80EDF6E120015D051EC16F0A4
:1026D000120053EC16F0120052EC16F0120043EC0C
:1026E00016F0120054EC16F012004DEC16F0120029
:1026F00055EC16F012001EC024F01FC025F0255026
:10270000000AD8B404D07F0AD8A412001AD02450EA
:10271000010AD8B4E4D7030AD8B4E4D7010AD8B47C
:10272000E4D7060AD8B41200770AD8B41200010A16
:10273000D8B4CCD7070AD8B4CFD7010AD8A412008E
:10274000C8D72450FF0AD8A41200D2D7E9CF99F0F5
:10275000EACF9AF0E1CF9BF0E2CF9CF0D9CF9DF089
:10276000DACF9EF0F3CF9FF0F4CFA0F0F6CFA1F038
:10277000F7CFA2F0F8CFA3F0F5CFA4F0A2EC0AF0C7
:10278000A4C0F5FFA3C0F8FFA2C0F7FFA1C0F6FFE9
:10279000A0C0F4FF9FC0F3FF9EC0DAFF9DC0D9FF29
:1027A0009CC0E2FF9BC0E1FF9AC0EAFF99C0E9FF2D
:1027B00098C0FBFF97C0FAFF4C9211000001ACBF1C
:1027C00012000001AEBF12000001ACBF08D0000132
:1027D000AC5126E1020E0001AB5DD8B01200000141
:1027E000AEBF08D00001AE511BE1100E0001AD5D7F
:1027F000D8B012000001AB51BAEC15F00001AF6F78
:102800000001AF510001AD250001B06F000E0001C5
:10281000AE210001B16F0001B051800F14EC16F031
:10282000120092948984550EA76EAA0EA76E0E010F
:10283000BF910A0E0E01C26F0B0E0E01C46F550E32
:10284000A76EAA0EA76E0E01BF819392929A899AE3
:102850008A92210E726E738CA49E000E0001A56FE9
:10286000000ECFEC15F0000E0001A56F010ECFECAD
:1028700015F0000E0001A56F120ECFEC15F012003E
:10288000380E0001AC6F11EC14F09C0E0001AB6F20
:10289000D70EE82EFED7AB2FFCD700F00001AC51CD
:1028A00039EC16F0A00EE82EFED70C0E39EC16F01F
:1028B000A00EE82EFED7010E39EC16F01B0E00011B
:1028C000AB6F7D0EE82EFED7AB2FFCD700F0060EC7
:1028D00039EC16F0A00EE82EFED71200020E4218B8
:1028E000D8A403D017EC0DF01200000E426E3A503F
:1028F000D8A419D020EE01F03650D9263750DA226C
:10290000080EDF6E20EE02F03650D9263750DA225C
:102910008C0EDE6E000EDD6E36C0D9FF37C0DAFFDA
:102920008C0EDF6E1200000E3A6E12000001A86FCE
:10293000000E0001A96F0001A7510001D8B403D017
:10294000800E0001A96FA9C0A5F0120ECFEC15F002
:10295000A8C0A5F0130ECFEC15F00001A951400955
:102960000001A56F120ECFEC15F0A9C0A5F0120E54
:10297000CFEC15F01200FC0E8D16FC0E961693800F
:102980009384000E81B0010E446E000E81B4010EDE
:10299000456E92800F014881010EC26E9E0EC16E7F
:1029A000000E0001796F79C078F078C077F0000EE2
:1029B00000017E6F000E00017F6F928A12000F0EE1
:1029C000C112D388D38AD38C020E0001AF6F580E88
:1029D000AE6F9B8C0001AE07D8A0AF070001AE29F7
:1029E000F9E10001AF29D8A4F5D70F0148690F011B
:1029F000496994849484BBEC14F040EC14F0F2EC3C
:102A000009F0120000018351D8A41200000E656E77
:102A1000000E0F01366F160E0F01396F9F0E0F015A
:102A2000376F7B0E0F01366FD08EA288A088F28E92
:102A300001D0658665A6FDD7010E0001836F1200E7
:102A40001D6E1AA405D0000E126E1D5091EC12F0EE
:102A50001AA205D0010E126E1D5091EC12F01D50FD
:102A6000010D260EF3241B6E0F0EF4201C6E1BC0EE
:102A7000D9FF1CC0DAFF1AC0DFFF12000F0126A128
:102A800018D034C0D9FF35C0DAFF800EDE18D8A4C4
:102A90000ED06FC0D9FF70C0DAFF840EDE18D8A444
:102AA00006D034C0D9FF35C0DAFF8C0EDF6E0F01BF
:102AB0002691629A1200A5C0ABF0A6C0ACF009D076
:102AC000ABC0D9FFACC0DAFFA7C0DFFF0001AB4B42
:102AD000AC2B0001A907D8A0AA070001A929F0E1A1
:102AE0000001AA29D8B41200EBD7000E0001826FB2
:102AF000000E1F6E740E1E6E000E206E000E216EF4
:102B0000000E236E000E226E65EC13F065920F012D
:102B1000369501D0629462A41200FCD70F0136856D
:102B200062986582010E0001826F000E1F6E750EA5
:102B30001E6E000E206E000E216E000E236E000E23
:102B4000226E65EC13F0120012C018F013C019F0D9
:102B500008D018C0D9FF19C0DAFF14C0DFFF184A27
:102B6000192A1606D8A017061628F3E11728D8B494
:102B70001200EFD70001A66F0001A6B106D0000138
:102B8000A6510A0DF3CFA5F007D00001A6510A0DFA
:102B9000F350360F0001A56F0001A551120000018E
:102BA000A66F8994400E756EA4AEFED7A49EA6C0F3
:102BB00075FFA4AEFED7A49EA5C075FFA4AEFED738
:102BC000A49E89841200DFEC14F0C10E0001B26FE4
:102BD0000F0E0001B36F000E0001B46F89EC0CF012
:102BE00002EC15F02EEC16F0FDD700EE60F0370E7B
:102BF000EE6AE806FDE100EE30F01C0EEE6AE80633
:102C0000FDE14C904C920001E3EF15F00001AA6F3A
:102C100050EC16F0010E0001A76F0001AA5196ECCE
:102C200014F049EC16F012000001AA6F50EC16F0F7
:102C3000000E0001A76F0001AA5196EC14F049ECB8
:102C400016F01200C294C296C298C29AC282C2B250
:102C5000FED7C3CFA5F0C4CFA6F0120095EC0EF0BE
:102C60001F0E00018365120065B2120026EC09F008
:102C700012000001AA6F000E0001A76F0001AA5107
:102C800096EC14F012001A0E1A6E010E20EC15F0DC
:102C90001200A00EE82EFED712009DEC0DF01200DF
:0C2CA000120012001200120012001200BC
:020000040001F9
:08FFF800BAF73DFF63FA81F93D
:00000001FF
