:0400000090EF00F08D
:100008003C82FACF1EF0FBCF1FF0E9CF20F0EACFF9
:1000180021F0E1CF22F0E2CF23F0D9CF24F0DACFDC
:1000280025F0F3CF26F0F4CF27F0F6CF28F0F7CF5E
:1000380029F0F8CF2AF0F5CF2BF0F2A24FD089960D
:10004800060E10EC0EF0898600F08996020E10EC70
:100058000EF0030E10EC0EF0000E10EC0EF0000E79
:100068002D6E000E2C6E2DBE06D02D5014E10B0EF9
:100078002C5CD8B010D02E0E2C24D96E000E2D205A
:10008800DA6EDF5010EC0EF02C4A2D2A2DBEF3D775
:100098002D5001E1ECD789864E0E1D6EEB0EE82E31
:1000A800FED71D2EFCD700F0730E0D6E000E0E6EDF
:1000B8000B0E0F6E100E106E2E0E116E000E126EBD
:1000C8002EEC09F0010E4FEC0DF0730E0E6E000EC3
:1000D8000F6E010E106E1EEC0BF0F2922BC0F5FFA6
:1000E8002AC0F8FF29C0F7FF28C0F6FF27C0F4FF91
:1000F80026C0F3FF25C0DAFF24C0D9FF23C0E2FFE2
:1001080022C0E1FF21C0EAFF20C0E9FF1FC0FBFFBA
:0C0118001EC0FAFF3C92110036EF0CF004
:101000000001000A006400E803102757726F74653E
:10101000202573005265616420257300286E756C6D
:101020006C29002564000000940E0001996F000EE9
:1010300000019A6FFCD0250E00019F19D8B40AD088
:1010400090C0D9FF91C0DAFF9FC0DFFF0001904B35
:10105000912BEDD0000E0001976F4BD099C0D9FFB6
:101060009AC0DAFFDECF9BF0DDCF9CF0020E0001CC
:101070009927000E9A2300019B5100019C11D8A4CE
:1010800023D01C0E00019B6F100E00019C6F1CD022
:101090009BC0F6FF9CC0F7FF000EF86E90C0D9FF12
:1010A00091C0DAFF0F0EF76403D00800F55005D0A9
:1010B000F6CFE9FFF7CFEAFFEF50DF6E00019B4B61
:1010C0009C2B0001904B912B9BC0F6FF9CC0F7FF1F
:1010D000000EF86E0F0EF76403D00800F55005D02F
:1010E000F6CFE9FFF7CFEAFFEF500009D8B49FD061
:1010F000CFD792C0F6FF93C0F7FF0001924B932B1E
:10110000000EF86E0800F5CF9FF000019F51000A15
:10111000D8B49DD0640AD8B407D00D0AD8B404D08E
:101120001A0AD8B49BD783D099C0D9FF9AC0DAFFE6
:10113000DECF9DF0DDCF9EF0020E00019927000E5C
:101140009A2300019EAF08D0030E000197130001FF
:101150009D6D9E1FD8B09E2B010E00019F6F050E46
:1011600000019F19D8B419D000019F51020D010E42
:10117000F324F66E100EF420F76EF86A000EF822D3
:101180000900F55000019D5D0900F55000019E59D0
:10119000D8A003D000019F2BE2D797C096F0030E92
:1011A00000019617D8B409D090C0D9FF91C0DAFFDA
:1011B0002D0EDF6E0001904B912B9FC098F031D027
:1011C00000019851020D010EF324F66E100EF4206A
:1011D000F76EF86A000EF8220900F5CF86F00A00D3
:1011E000F5CF87F09DC084F09EC085F066EC0BF0D3
:1011F00084C08BF085C08CF0000E00018E6F0A0E4B
:101200008D6FD5EC0BF000018B51300F00019F6FFB
:1012100090C0D9FF91C0DAFF9FC0DFFF0001904B63
:10122000912B0001980700019829D8A4C9D792C032
:10123000F6FF93C0F7FF0001924B932B000EF86E60
:101240000800F5CF9FF000019F51D8A4F4D690C0BC
:10125000D9FF91C0DAFF000EDF6E1200110E166E7C
:10126000000E176EDDD0250E1C18D8B409D00DC0A5
:10127000D9FF0EC0DAFF1CC0DFFF0D4A0E2AD0D006
:10128000000E146E44D016C0D9FF17C0DAFFDECFAF
:1012900018F0DDCF19F0020E1626000E1722185096
:1012A0001910D8A41FD01C0E186E100E196E1AD06B
:1012B00018C0F6FF19C0F7FF000EF86E0DC0D9FF79
:1012C0000EC0DAFF0F0EF76403D00800F55005D00A
:1012D000F6CFE9FFF7CFEAFFEF50DF6E184A192A81
:1012E0000D4A0E2A18C0F6FF19C0F7FF000EF86E5F
:1012F0000F0EF76403D00800F55005D0F6CFE9FFD4
:10130000F7CFEAFFEF500009D8B48AD0D1D70FC089
:10131000F6FF10C0F7FF0F4A102A000EF86E080003
:10132000F5CF1CF01C50000AD8B488D0640AD8B499
:1013300007D00D0AD8B404D01A0AD8B4A4D770D0F4
:1013400016C0D9FF17C0DAFFDECF1AF0DDCF1BF0D1
:10135000020E1626000E17221BAE06D0030E141224
:101360001A6C1B1ED8B01B2A010E1C6E050E1C1811
:10137000D8B415D01C50020D010EF324F66E100ED9
:10138000F420F76EF86A000EF8220900F5501A5C96
:101390000900F5501B58D8A002D01C2AE7D714C06A
:1013A00013F0030E1316D8B408D00DC0D9FF0EC029
:1013B000DAFF2D0EDF6E0D4A0E2A1CC015F02CD060
:1013C0001550020D010EF324F66E100EF420F76E88
:1013D000F86A000EF8220900F5CF03F00A00F5CFF5
:1013E00004F01AC001F01BC002F064EC0CF001C064
:1013F00008F002C009F0000E0B6E0A0E0A6ED5EC62
:101400000CF00850300F1C6E0DC0D9FF0EC0DAFF73
:101410001CC0DFFF0D4A0E2A15061528D8A4D0D708
:101420000FC0F6FF10C0F7FF0F4A102A000EF86E2B
:101430000800F5CF1CF01C50D8A415D70DC0D9FF5B
:101440000EC0DAFF000EDF6E1200000E0001616FA9
:10145000000E606F9B8C06EC0CF029EC0EF0DBECC0
:101460000DF021EC0EF08996030ECFEC0DF0030E7B
:10147000CFEC0DF0000ECFEC0DF0000E0001A56FCB
:10148000000EA46F0001A5BF08D00001A5511BE10B
:101490000B0E0001A45DD8B016D0A60E0001A42545
:1014A000D96E000E0001A521DA6E000ECFEC0DF012
:1014B000DF6E0001A44BA52B0001A5BFEED70001F4
:1014C000A55101E1E5D78986730E0001906F000EEA
:1014D0000001916F140E0001926F100E0001936FC6
:1014E000A60E0001946F000E0001956F14EC08F039
:1014F000010EF6EC0CF0730E0001916F000E00016E
:10150000926F010E0001936FCDEC0AF02FEC0EF0FC
:10151000620E0001906F000E0001916F230E00011A
:10152000926F100E0001936F60C094F061C095F04F
:1015300014EC08F0000EF6EC0CF0620E0001916F56
:10154000000E0001926F000E0001936FCDEC0AF0C7
:10155000000E0001A06F000EA16F000EA26F000E22
:10156000A36F0001A3BF0DD00001A3510001A21180
:1015700010E1500E0001A05DC30E0001A159D8B0CA
:1015800008D0010E0001A027000EA123A223A3234F
:10159000E8D70001604B612BBBD7010E00019365BA
:1015A00001D0120093C08AF000018B6B000E000185
:1015B0008D6F000E8C6FA2EC0BF038D091C0D9FF6C
:1015C00092C0DAFF0A0EDE18D8A40AD00001932BCD
:1015D000020E00019319D8A403D0000E0001936FEE
:1015E00091C0D9FF92C0DAFF0D0EDE18D8B408D032
:1015F00091C0D9FF92C0DAFF0A0EDE18D8A40CD031
:1016000093C08AF000018B6B000E00018D6F000EFD
:101610008C6FA2EC0BF007D091C0D9FF92C0DAFF1B
:10162000DF50B3EC0DF00001914B922B91C0D9FF2C
:1016300092C0DAFFDF50D8B41200C0D7010E106498
:1016400001D0120010C007F0086A000E0A6E000EEA
:10165000096EB2EC0CF032D00EC0D9FF0FC0DAFF29
:101660000A0EDE18D8A407D0102A020E1018D8A42B
:1016700002D0000E106E0EC0D9FF0FC0DAFF0D0EA3
:10168000DE18D8B408D00EC0D9FF0FC0DAFF0A0E9A
:10169000DE18D8A40AD010C007F0086A000E0A6E3F
:1016A000000E096EB2EC0CF007D00EC0D9FF0FC0CF
:1016B000DAFFDF50E7EC0DF00E4A0F2A0EC0D9FF1B
:1016C0000FC0DAFFDF50D8B41200C6D7000E0001F9
:1016D0008A6F000E896F0001865100018711D8B40E
:1016E0002CD0010E0001886F06D00001D8908637FB
:1016F00087370001882B000187AFF7D70001D8900A
:1017000089378A37000186510001845D00018751C5
:1017100000018559D8A00AD0000186510001845FDC
:10172000000187510001855B000189810001D8908B
:10173000873386330001882FE1D789C084F08AC0BF
:1017400085F0120000018BBF120000018DBF120056
:1017500000018BBF08D000018B5126E1020E000171
:101760008A5DD8B0120000018DBF08D000018D51F4
:101770001BE1100E00018C5DD8B0120000018A51EF
:1017800068EC0DF000018E6F00018E5100018C2578
:1017900000018F6F000E00018D210001906F00018C
:1017A0008F51800FC1EC0DF0120000018D5100012E
:1017B0008E11D8B426D0010E00018F6F06D0000123
:1017C000D8908D378E3700018F2B00018EAFF7D761
:1017D00000018D5100018B5D00018E5100018C597B
:1017E000D8A008D000018D5100018B5F00018E51FF
:1017F00000018C5B0001D8908E338D3300018F2F58
:10180000E7D78BC08BF08CC08CF01200380E000133
:101810008B6F34EC0DF0820E00018A6FDE0EE82E25
:10182000FED78A2FFCD700018B51FDEC0DF0850E01
:10183000E82EFED700F00C0EFDEC0DF0850EE82E24
:10184000FED700F0010EFDEC0DF0170E00018A6FBF
:10185000120EE82EFED78A2FFCD700D0060EFDEC24
:101860000DF0850EE82EFED700F0120000EE60F0BD
:10187000240EEE6AE806FDE13B6A3A6A396A320EE6
:10188000F66E1C0EF76E000EF86E00EEA6F010EE6F
:1018900010F00900F5CFEEFFE550E150FAE16A0ED5
:1018A000F66E1C0EF76E000EF86E00EE2EF010EEC7
:1018B0000BF00900F5CFEEFFE550E150FAE13C9066
:1018C0003C92000125EF0AF0000E066E000E056E38
:1018D00003500410D8B41CD0010E076E04D0D89069
:1018E00003360436072A04AEFAD7D89005360636F2
:1018F0000350015C04500258D8A005D00350015E8B
:101900000450025A0580D89004320332072EEDD7D6
:1019100005C001F006C002F012000001876F000E42
:101920000001886F000186510001D8B403D0800EF9
:101930000001886F88C084F0120E7DEC0DF087C026
:1019400084F0130E7DEC0DF0000188514009000178
:10195000846F120E7DEC0DF088C084F0120E7DECC9
:101960000DF0120008BE12000ABE120008BE06D01A
:1019700008501AE1020E075CD8B012000ABE06D069
:101980000A5012E1100E095CD8B012000750A4EC06
:101990000DF00B6E0B5009240C6E000E0A200D6E1C
:1019A0000C50800FF2EC0DF012000A500B10D8B45E
:1019B00018D0010E0C6E04D0D8900A360B360C2AC3
:1019C0000BAEFAD70A50085C0B500958D8A004D0C7
:1019D0000A50085E0B50095AD8900B320A320C2E6E
:1019E000F1D708C008F009C009F012000001926F99
:1019F000000E0001916F010E0001926501D01200EE
:101A000092C08AF000018B6B000E00018D6F000EFA
:101A10008C6FA2EC0BF005D0200EB3EC0DF00001A2
:101A2000912B0F0E00019165F7D71200046E000E86
:101A3000056E0350D8B402D0800E056E05C001F0CB
:101A4000120E91EC0DF004C001F0130E91EC0DF0AC
:101A500005504009016E120E91EC0DF005C001F029
:101A6000120E91EC0DF01200929489849496949A3F
:101A7000210EC66EC78C9E96000E0001846F000E6C
:101A80007DEC0DF0000E0001846F010E7DEC0DF079
:101A9000000E0001846F120E7DEC0DF012000E6E30
:101AA000000E0F6E010E0E6401D012000EC007F082
:101AB000086A000E0A6E000E096EB2EC0CF004D03B
:101AC000200EE7EC0DF00F2A0F0E0F64F9D712006D
:101AD0000001856F000185B106D0000185510A0D16
:101AE000F3CF84F007D0000185510A0DF350360F73
:101AF0000001846F0001845112000001856F8994F8
:101B0000400EC96E9EA6FED79E9685C0C9FF9EA6B2
:101B1000FED79E9684C0C9FF9EA6FED79E96898456
:101B20001200026E8994400EC96E9EA6FED79E9644
:101B300002C0C9FF9EA6FED79E9601C0C9FF9EA601
:101B4000FED79E9689841200026E02B005D0025024
:101B50000A0DF3CF01F005D002500A0DF350360FF5
:101B6000016E015012000001896F45EC0EF0010E6C
:101B70000001866F000189518DEC0CF03BEC0EF0FA
:101B800012000001896F45EC0EF0000E0001866F17
:101B9000000189518DEC0CF03BEC0EF012000001BD
:101BA000846F84C0C9FF9EA6FED79E96C9CF85F0DC
:101BB000000185511200000E8C6E000E956E010E14
:101BC000936EF19E100E946E898692961200066EA8
:101BD00046EC0EF0010E036E065016EC0DF040ECD4
:101BE0000EF01200066E46EC0EF0000E036E06506C
:101BF00016EC0DF040EC0EF012000001896F000EA3
:101C00000001866F000189518DEC0CF01200160E58
:101C10000001846F8E0EE82EFED7842FFCD71200B1
:101C2000016E01C0C9FF9EA6FED79E96C9CF02F0E5
:101C30001200496E76616C696400000000000000CB
:101C40000000C78CC698C650F00B0109C66EC68A44
:101C50001200010EC1EC0DF007EC0EF01200D09E48
:101C6000F19CF288F292F28E12004920616D2047B9
:101C7000726F6F740000850EE82EFED700F0120020
:0E1C8000850EE82EFED700F0120012001200B2
:020000040001F9
:06FFF800A0F4C5FFF8FFB4
:00000001FF
