:0400000069EF00F0B4
:100008003F82FACF1DF0FBCF1EF0E9CF1FF0EACFF9
:1000180020F0E1CF21F0E2CF22F0D9CF23F0DACFE0
:1000280024F0F3CF25F0F4CF26F0F6CF27F0F7CF62
:1000380028F0F8CF29F0F5CF2AF02B68F2A227D0C4
:100048002DC001F000017E517AEC0CF0010E2D1A42
:10005800E2EC0AF02B6E2E0E0D6E000E0E6E0B0EDD
:100068000F6E100E106E7EC011F0126A2BC013F0C6
:10007800146AD9EC08F0010E61EC0CF02E0E0E6E2D
:10008800000E0F6E010E106E2BEC0AF0F2922AC0D1
:10009800F5FF29C0F8FF28C0F7FF27C0F6FF26C0E4
:1000A800F4FF25C0F3FF24C0DAFF23C0D9FF22C024
:1000B800E2FF21C0E1FF20C0EAFF1FC0E9FF1EC028
:0E00C800FBFF1DC0FAFF3F921100CFEF0CF0BE
:101000000001000A006400E803102757726F74653E
:101010002025642C20476F74202564000000700E8A
:101020000001736F000E0001746FACD0250E00013B
:101030007919D8B40AD06CC0D9FF6DC0DAFF79C075
:10104000DFFF00016C4B6D2B9DD0000E0001756F12
:101050006EC0F6FF6FC0F7FF00016E4B6F2B000EE6
:10106000F86E0800F5CF79F000017951000AD8B484
:1010700099D0640AD8B403D00D0AD8A483D073C021
:10108000D9FF74C0DAFFDECF77F0DDCF78F0020E43
:1010900000017327000E7423000178AF08D0030EFF
:1010A000000175130001776D781FD8B0782B010E01
:1010B0000001796F050E00017919D8B419D000012B
:1010C0007951020D010EF324F66E100EF420F76E26
:1010D000F86A000EF8220900F5500001775D09005A
:1010E000F55000017859D8A003D00001792BE2D740
:1010F00075C072F0030E00017217D8B409D06CC02D
:10110000D9FF6DC0DAFF2D0EDF6E00016C4B6D2B29
:1011100079C076F031D000017651020D010EF32432
:10112000F66E100EF420F76EF86A000EF822090031
:10113000F5CF62F00A00F5CF63F077C060F078C0B9
:1011400061F073EC0AF060C067F061C068F0000EF7
:1011500000016A6F0A0E696F15EC0BF00001675110
:10116000300F0001796F6CC0D9FF6DC0DAFF79C014
:10117000DFFF00016C4B6D2B000176070001762923
:10118000D8A4C9D76EC0F6FF6FC0F7FF00016E4B41
:101190006F2B000EF86E0800F5CF79F00001795141
:1011A000D8A444D76CC0D9FF6DC0DAFF000EDF6E43
:1011B0001200110E166E000E176E94D0250E1C181C
:1011C000D8B409D00DC0D9FF0EC0DAFF1CC0DFFFB4
:1011D0000D4A0E2A87D0000E186E0FC0F6FF10C001
:1011E000F7FF0F4A102A000EF86E0800F5CF1CF02A
:1011F0001C50000AD8B484D0640AD8B403D00D0AB5
:10120000D8A470D016C0D9FF17C0DAFFDECF1AF00D
:10121000DDCF1BF0020E1626000E17221BAE06D0E5
:10122000030E18121A6C1B1ED8B01B2A010E1C6E5E
:10123000050E1C18D8B415D01C50020D010EF32455
:10124000F66E100EF420F76EF86A000EF822090010
:10125000F5501A5C0900F5501B58D8A002D01C2A82
:10126000E7D718C015F0030E1516D8B408D00DC076
:10127000D9FF0EC0DAFF2D0EDF6E0D4A0E2A1CC0FC
:1012800019F02CD01950020D010EF324F66E100E39
:10129000F420F76EF86A000EF8220900F5CF03F08B
:1012A0000A00F5CF04F01AC001F01BC002F076EC82
:1012B0000BF001C008F002C009F0000E0B6E0A0E20
:1012C0000A6EE7EC0BF00850300F1C6E0DC0D9FF12
:1012D0000EC0DAFF1CC0DFFF0D4A0E2A19061928BE
:1012E000D8A4D0D70FC0F6FF10C0F7FF0F4A102ABE
:1012F000000EF86E0800F5CF1CF01C50D8A45ED785
:101300000DC0D9FF0EC0DAFF000EDF6E1200000E16
:1013100000017E6F9B8C46EC0BF046EC0DF02BEC45
:101320000DF03EEC0DF04CEC0DF07F0E00016C6FFB
:10133000000E00016D6F190E00016E6F100E00019E
:101340006F6F7EC070F00001716B0FEC08F0000E43
:1013500008EC0CF07F0E00016D6F000E00016E6F47
:10136000000E00016F6FDAEC09F0000E00017A6FD9
:10137000000E7B6F000E7C6F000E7D6F00017DBF45
:101380000ED000017D5113E1E00E00017A5D930E55
:1013900000017B59040E00017C59D8B008D0010E21
:1013A00000017A27000E7B237C237D23E7D70001F1
:1013B0007E2BBBD7010E00016F6501D012006FC0FC
:1013C00066F00001676B000E0001696F000E686F28
:1013D000AFEC0AF038D06DC0D9FF6EC0DAFF0A0E4C
:1013E000DE18D8A40AD000016F2B020E00016F197D
:1013F000D8A403D0000E00016F6F6DC0D9FF6EC07E
:10140000DAFF0D0EDE18D8B408D06DC0D9FF6EC05B
:10141000DAFF0A0EDE18D8A40CD06FC066F0000107
:10142000676B000E0001696F000E686FAFEC0AF089
:1014300007D06DC0D9FF6EC0DAFFDF50EFEC0CF0C3
:1014400000016D4B6E2B6DC0D9FF6EC0DAFFDF500F
:10145000D8B41200C0D7010E106401D0120010C021
:1014600007F0086A000E0A6E000E096EC4EC0BF05D
:1014700032D00EC0D9FF0FC0DAFF0A0EDE18D8A492
:1014800007D0102A020E1018D8A402D0000E106E39
:101490000EC0D9FF0FC0DAFF0D0EDE18D8B408D089
:1014A0000EC0D9FF0FC0DAFF0A0EDE18D8A40AD08A
:1014B00010C007F0086A000E0A6E000E096EC4EC38
:1014C0000BF007D00EC0D9FF0FC0DAFFDF500BECD6
:1014D0000DF00E4A0F2A0EC0D9FF0FC0DAFFDF5001
:1014E000D8B41200C6D7000E0001666F000E656FFB
:1014F0000001625100016311D8B42CD0010E00012B
:10150000646F06D00001D890623763370001642B06
:10151000000163AFF7D70001D89065376637000147
:1015200062510001605D0001635100016159D8A062
:101530000AD0000162510001605F000163510001A7
:10154000615B000165810001D89063336233000163
:10155000642FE1D765C060F066C061F01200000141
:1015600067BF1200000169BF1200000167BF08D009
:101570000001675126E1020E0001665DD8B012003D
:10158000000169BF08D0000169511BE1100E000184
:10159000685DD8B012000001665193EC0CF00001B8
:1015A0006A6F00016A510001682500016B6F000E2F
:1015B0000001692100016C6F00016B51800FFDEC8F
:1015C0000CF012006B806BB0FED76FCF01F0CF0E26
:1015D0006F6E6DA06DB4FDD76B866DA0FED76FCF1B
:1015E00001F06B9A6B886BB8FED76B866DA0FED747
:1015F0006F5001266B9A6B886BB8FED76B866DA017
:10160000FED76F5001266B9A6B886BB8FED76B863E
:101610006DA0FED76F5001266B8A6B886BB8FED722
:101620006B846BB4FED701501200000169510001B8
:101630006A11D8B426D0010E00016B6F06D00001EC
:10164000D89069376A3700016B2B00016AAFF7D772
:10165000000169510001675D00016A51000168598C
:10166000D8A008D0000169510001675F00016A51EC
:101670000001685B0001D8906A33693300016B2F69
:10168000E7D767C067F068C068F01200380E000145
:10169000676F46EC0CF0820E0001666FDE0EE82EDE
:1016A000FED7662FFCD70001675121EC0DF0850EA7
:1016B000E82EFED700F00C0E21EC0DF0850EE82E82
:1016C000FED700F0010E21EC0DF0170E0001666F41
:1016D000120EE82EFED7662FFCD700D0060E21ECA6
:1016E0000DF0850EE82EFED700F01200000E066EFB
:1016F000000E056E03500410D8B41CD0010E076E06
:1017000004D0D89003360436072A04AEFAD7D8900E
:10171000053606360350015C04500258D8A005D0A7
:101720000350015E0450025A0580D89004320332FF
:10173000072EEDD705C001F006C002F0120000012F
:10174000636F000E0001646F000162510001D8B4A4
:1017500003D0800E0001646F64C060F0120EA8EC2C
:101760000CF063C060F0130EA8EC0CF000016451A3
:1017700040090001606F120EA8EC0CF064C060F02C
:10178000120EA8EC0CF0120008BE12000ABE1200E5
:1017900008BE06D008501AE1020E075CD8B012004D
:1017A0000ABE06D00A5012E1100E095CD8B0120031
:1017B0000750E0EC0CF00B6E0B5009240C6E000E81
:1017C0000A200D6E0C50800F16EC0DF012000A501E
:1017D0000B10D8B418D0010E0C6E04D0D8900A3675
:1017E0000B360C2A0BAEFAD70A50085C0B5009587E
:1017F000D8A004D00A50085E0B50095AD8900B327A
:101800000A320C2EF1D708C008F009C009F0120006
:1018100000016E6F000E00016D6F010E00016E651C
:1018200001D012006EC066F00001676B000E00016F
:10183000696F000E686FAFEC0AF005D0200EEFEC78
:101840000CF000016D2B0F0E00016D65F7D7120033
:10185000046E000E056E0350D8B402D0800E056EE3
:1018600005C001F0120EBCEC0CF004C001F0130E28
:10187000BCEC0CF005504009016E120EBCEC0CF0F3
:1018800005C001F0120EBCEC0CF012009294898499
:101890009496949A210EC66EC78C9E96000E0001F7
:1018A000606F000EA8EC0CF0000E0001606F010EDE
:1018B000A8EC0CF0000E0001606F120EA8EC0CF00A
:1018C00012000E6E000E0F6E010E0E6401D012009B
:1018D0000EC007F0086A000E0A6E000E096EC4EC16
:1018E0000BF004D0200E0BEC0DF00F2A0F0E0F643E
:1018F000F9D71200036E6B806BB0FED76FCF02F08A
:10190000CE0E6F6E6DA06DB4FDD701C06FFF6DA0E0
:101910006DB4FDD703C06FFF6DA06DB4FDD76B84B0
:101920006BA41200FDD70001616F000161B106D008
:10193000000161510A0DF3CF60F007D00001615141
:101940000A0DF350360F0001606F00016051120064
:101950000001616F8994400EC96E9EA6FED79E96C7
:1019600061C0C9FF9EA6FED79E9660C0C9FF9EA615
:10197000FED79E9689841200026E8994400EC96E2D
:101980009EA6FED79E9602C0C9FF9EA6FED79E9633
:1019900001C0C9FF9EA6FED79E968984120000EE64
:1019A0007EF0120EEE6AE806FDE100EE2CF0130E5A
:1019B000EE6AE806FDE13F903F92000187EF09F0F3
:1019C000026E02B005D002500A0DF3CF01F005D02F
:1019D00002500A0DF350360F016E01501200000143
:1019E000656F5CEC0DF0010E0001626F0001655146
:1019F0009FEC0BF052EC0DF012000001656F5CECF7
:101A00000DF0000E0001626F000165519FEC0BF0BC
:101A100052EC0DF01200066E5DEC0DF0010E036E3F
:101A2000065028EC0CF057EC0DF01200066E5DEC41
:101A30000DF0000E036E065028EC0CF057EC0DF084
:101A400012000001656F000E0001626F0001655118
:101A50009FEC0BF01200000E8C6E000E956E010EC6
:101A6000936EF19E600E956E1200160E0001606F6F
:101A70008E0EE82EFED7602FFCD71200630E6E6E1E
:101A80006C50F00B08096C6E6C8A1200010EFDECB4
:101A90000CF035EC0DF01200D09EF19CF288F29221
:101AA000F28E1200850EE82EFED700F01200850E91
:0C1AB000E82EFED700F012001200120019
:020000040001F9
:06FFF800A0F4C5FFF8FFB4
:00000001FF
