:040000008EEF00F08F
:100008004B82FACF03F0FBCF04F0E9CF05F0EACF3B
:1000180006F0E1CF07F0E2CF08F0D9CF09F0DACF48
:100028000AF0F3CF0BF0F4CF0CF0F6CF0DF0F7CFCA
:100038000EF0F8CF0FF0F5CF10F0A4AE4DD06FCF83
:1000480011F038503910D8A41ED011C032F0336ADC
:1000580032043310D8A406D031506F6E000E396EBA
:10006800010E2AD0020E32183310D8A434D05CEC1A
:100078000AF001C036F002C037F037506F6E000E3C
:10008800396E030E19D038043910D8A406D030C000
:100098006FFF000E396E020E0FD0020E381839109D
:1000A800D8B411D0030E38183910D8A407D036C0E8
:1000B8006FFF000E396E040E386E0DD0040E38181E
:1000C8003910D8A408D0000E396E000E386E000E14
:1000D800336E000E326EA49E10C0F5FF0FC0F8FFFD
:1000E8000EC0F7FF0DC0F6FF0CC0F4FF0BC0F3FF06
:1000F8000AC0DAFF09C0D9FF08C0E2FF07C0E1FF64
:1001080006C0EAFF05C0E9FF04C0FBFF03C0FAFF11
:080118004B9211006AEF0AF09E
:101000000001000A006400E80310272564000000C6
:10101000220E256E000E266E94D0250E2B18D8B405
:1010200009D01EC0D9FF1FC0DAFF2BC0DFFF1E4A48
:101030001F2A87D0000E276E20C0F6FF21C0F7FFC1
:10104000204A212A000EF86E0800F5CF2BF02B5015
:10105000000AD8B484D0640AD8B403D00D0AD8A446
:1010600070D025C0D9FF26C0DAFFDECF29F0DDCF52
:101070002AF0020E2526000E26222AAE06D0030EE6
:101080002712296C2A1ED8B02A2A010E2B6E050EB3
:101090002B18D8B415D02B50020D010EF324F66E88
:1010A000100EF420F76EF86A000EF8220900F550D1
:1010B000295C0900F5502A58D8A002D02B2AE7D77E
:1010C00027C024F0030E2416D8B408D01EC0D9FFC0
:1010D0001FC0DAFF2D0EDF6E1E4A1F2A2BC028F01C
:1010E0002CD02850020D010EF324F66E100EF420C1
:1010F000F76EF86A000EF8220900F5CF14F00A0026
:10110000F5CF15F029C012F02AC013F06FEC09F0EA
:1011100012C019F013C01AF0000E1C6E0A0E1B6EDE
:10112000BBEC09F01950300F2B6E1EC0D9FF1FC049
:10113000DAFF2BC0DFFF1E4A1F2A28062828D8A462
:10114000D0D720C0F6FF21C0F7FF204A212A000E89
:10115000F86E0800F5CF2BF02B50D8A45ED71EC038
:10116000D9FF1FC0DAFF000EDF6E1200010E2164EE
:1011700001D0120021C018F0196A000E1B6E000E7B
:101180001A6E98EC09F032D01FC0D9FF20C0DAFFE8
:101190000A0EDE18D8A407D0212A020E2118D8A4DE
:1011A00002D0000E216E1FC0D9FF20C0DAFF0D0E45
:1011B000DE18D8B408D01FC0D9FF20C0DAFF0A0E4D
:1011C000DE18D8A40AD021C018F0196A000E1B6ED0
:1011D000000E1A6E98EC09F007D01FC0D9FF20C08E
:1011E000DAFFDF5075EC0AF01F4A202A1FC0D9FF32
:1011F00020C0DAFFDF50D8B41200C6D7000E356E1B
:10120000000E346E9B8C43EC09F0A2EC0AF04DEC1E
:101210000AF093EC0AF0A8EC0AF03A0E1E6E000EEB
:101220001F6E0B0E206E100E216E30C022F031C0EA
:1012300023F008EC08F0000EFAEC09F03A0E1F6EED
:10124000000E206E000E216EB6EC08F0304A312AF6
:10125000000E2C6E000E2D6E000E2E6E000E2F6EE8
:101260002FBE0AD02F50D9E1E00E2C5C930E2D58E2
:10127000040E2E58D8B0D1D7010E2C26000E2D22E8
:101280002E222F22EDD7380E196E13EC0AF0820EA3
:10129000186EDE0EE82EFED7182EFCD719509BECE8
:1012A0000AF0850EE82EFED700F00C0E9BEC0AF03B
:1012B000850EE82EFED700F0010E9BEC0AF0170E0B
:1012C000186E120EE82EFED7182EFCD700D0060E90
:1012D0009BEC0AF0850EE82EFED700F01200000EFF
:1012E000176E000E166E14501510D8B41CD0010ED7
:1012F000186E04D0D89014361536182A15AEFAD7C1
:10130000D890163617361450125C15501358D8A0C2
:1013100005D01450125E1550135A1680D89015320D
:101320001432182EEDD716C012F017C013F01200A9
:1013300019BE12001BBE120019BE06D019501AE1C8
:10134000020E185CD8B012001BBE06D01B5012E172
:10135000100E1A5CD8B0120018503EEC0AF01C6E49
:101360001C501A241D6E000E1B201E6E1D50800F77
:1013700080EC0AF012001B501C10D8B418D0010EDB
:101380001D6E04D0D8901B361C361D2A1CAEFAD711
:101390001B50195C1C501A58D8A004D01B50195E61
:1013A0001C501A5AD8901C321B321D2EF1D719C06E
:1013B00019F01AC01AF01200156E000E166E1450B5
:1013C000D8B402D0800E166E16C012F0120E2BEC9E
:1013D0000AF015C012F0130E2BEC0AF0165040095B
:1013E000126E120E2BEC0AF016C012F0120E2BEC3D
:1013F0000AF01200206E000E1F6E010E206401D054
:10140000120020C018F0196A000E1B6E000E1A6E32
:1014100098EC09F004D0200E75EC0AF01F2A0F0E8C
:101420001F64F9D71200929489849496949A210E9D
:10143000C66EC78C9E96000E126E000E2BEC0AF044
:10144000000E126E010E2BEC0AF0000E126E120E40
:101450002BEC0AF01200136E8994400EC96E9EA602
:10146000FED79E9613C0C9FF9EA6FED79E9612C0B9
:10147000C9FF9EA6FED79E9689841200136E13B0F4
:1014800005D013500A0DF3CF12F005D013500A0DFA
:10149000F350360F126E12501200000E8C6E000EBA
:1014A000956EE00E956E010E926EBA0EC16EC088FA
:1014B000FE0EC16EC0981200C294C296C298C29A23
:1014C000C280C282C2B2FED7C290C3CF01F0C4CFE5
:1014D00002F0120000EE30F01B0EEE6AE806FDE1AD
:1014E0004B904B920001FEEF08F0176EB3EC0AF040
:1014F000010E146E1750DCEC09F0AEEC0AF012008D
:10150000176EB3EC0AF0000E146E1750DCEC09F005
:10151000AEEC0AF01200160E126E8E0EE82EFED7FA
:10152000122EFCD712006D8C6C986C50F00B0409D5
:101530006C6E6C8A1200176E000E146E1750DCEC85
:1015400009F01200010E80EC0AF08BEC0AF0120098
:10155000D09EA49EA38EF28CF28E1200850EE82EF1
:08156000FED700F0120012009A
:020000040001F9
:06FFF800A0F4C5FFF8FFB4
:00000001FF
