:0400000052EF00F0CB
:100008004D82FACF02F0FBCF03F0E9CF04F0EACF3C
:1000180005F0E1CF06F0E2CF07F0D9CF08F0DACF4C
:1000280009F0F3CF0AF0F4CF0BF0F6CF0CF0F7CFCE
:100038000DF0F8CF0EF0F5CF0FF0F2A211D03B1E65
:10004800F1AC02D0010E01D0000EFF0A016E013A98
:1000580001460146F1500118BF0B0118F16EF292EA
:100068000FC0F5FF0EC0F8FF0DC0F7FF0CC0F6FF7C
:100078000BC0F4FF0AC0F3FF09C0DAFF08C0D9FFBC
:1000880007C0E2FF06C0E1FF05C0EAFF04C0E9FFC0
:1000980003C0FBFF02C0FAFF4D92110001EF0CF004
:101000000001000A006400E803102753656372655D
:101010007420427574746F6E00436F756E74203D5A
:101020002025640A00436F756E74203D20256400FE
:1010300052656C656173656400286E756C6C29007F
:1010400025730A000000ACD1250E2B18D8B434D07B
:1010500020EE02F01C50D9261D50DA22DE50DE10A0
:10106000DE10D8B413D020EE02F01C50D9261D504B
:10107000DA2201D895D10500FA6EDE50FD6EDE5001
:10108000FE6EDE50FF6EFA502B5012001CC0D9FFCE
:101090001DC0DAFFDECF22F0DDCF23F022C0D9FF62
:1010A00023C0DAFF2BC0DFFF1CC0D9FF1DC0DAFF51
:1010B000DE2A000EDD2274D1000E256E8AD020C0FB
:1010C000D9FF21C0DAFFDFCF22F0020EDE26DFCF0C
:1010D00023F0000EDD2222C0D9FF23C0DAFFDECFCD
:1010E00029F0DDCF2AF029502A10D8A45DD0390E7E
:1010F000296E100E2A6E58D020EE02F01C50D92610
:101100001D50DA22DE50DE10DE10D8B426D020EEDC
:1011100002F01C50D9261D50DA2201D81BD0050040
:10112000FA6EDE50FD6EDE50FE6EDE50FF6EFA503F
:1011300029C0F6FF2AC0F7FF000EF86E0F0EF76405
:1011400003D00800F55005D0F6CFE9FFF7CFEAFF4E
:10115000EF501200294A2A2A27D029C0F6FF2AC0B8
:10116000F7FF000EF86E1CC0D9FF1DC0DAFFDECFFE
:1011700022F0DDCF23F022C0D9FF23C0DAFF0F0E0B
:10118000F76403D00800F55005D0F6CFE9FFF7CF9C
:10119000EAFFEF50DF6E294A2A2A1CC0D9FF1DC082
:1011A000DAFFDE2A000EDD2229C0F6FF2AC0F7FF93
:1011B000000EF86E0F0EF76403D00800F55005D04E
:1011C000F6CFE9FFF7CFEAFFEF500009D8B4E8D037
:1011D00093D71EC0F6FF1FC0F7FF1E4A1F2A000E3E
:1011E000F86E0800F5CF2BF02B50000AD8B4E6D0EB
:1011F000640AD8B407D00D0AD8B404D01A0AD8B4F7
:101200005ED7CED020C0D9FF21C0DAFFDFCF22F0D9
:10121000020EDE26DFCF23F0000EDD2222C0D9FF32
:1012200023C0DAFFDECF27F0DDCF28F028AE06D0CE
:10123000030E2512276C281ED8B0282A010E2B6E0B
:10124000050E2B18D8B415D02B50020D010EF32427
:10125000F66E100EF420F76EF86A000EF822090000
:10126000F550275C0900F5502858D8A002D02B2A49
:10127000E7D725C022F0030E2216D8B433D020EED3
:1012800002F01C50D9261D50DA22DE50DE10DE108E
:10129000D8B413D020EE02F01C50D9261D50DA220B
:1012A00001D820D00500FA6EDE50FD6EDE50FE6ED5
:1012B000DE50FF6EFA502D0E12001CC0D9FF1DC06B
:1012C000DAFFDECF22F0DDCF23F022C0D9FF23C02A
:1012D000DAFF2D0EDF6E1CC0D9FF1DC0DAFFDE2A3B
:1012E000000EDD222BC026F057D02650020D010E35
:1012F000F324F66E100EF420F76EF86A000EF82252
:101300000900F5CF12F00A00F5CF13F027C010F056
:1013100028C011F0F2EC0AF010C017F011C018F05C
:10132000000E1A6E0A0E196E61EC0BF01750300F9A
:101330002B6E20EE02F01C50D9261D50DA22DE5012
:10134000DE10DE10D8B413D020EE02F01C50D926E7
:101350001D50DA2201D820D00500FA6EDE50FD6E55
:10136000DE50FE6EDE50FF6EFA502B5012001CC095
:10137000D9FF1DC0DAFFDECF22F0DDCF23F022C07F
:10138000D9FF23C0DAFF2BC0DFFF1CC0D9FF1DC06F
:10139000DAFFDE2A000EDD2226062628D8A4A5D7ED
:1013A0001EC0F6FF1FC0F7FF1E4A1F2A000EF86E70
:1013B0000800F5CF2BF02B50D8A446D6000E1D6E9A
:1013C000000E1C6E12003BC087F09B8CC6EC0AF02E
:1013D00067EC0CF037EC0CF041EC0CF05AEC0CF034
:1013E000000E3A6E000E396EAC889EAAFED7AFCFC3
:1013F00082F0AC98000E8C6E3B5000018719D8B477
:1014000031D03BC087F0000187510001D8A40BD038
:101410003C0E2C6E000E2D6E0B0E2E6E100E2F6ECF
:101420001BEC0BF00AD03C0E2C6E000E2D6E300E15
:101430002E6E100E2F6E1BEC0BF0010EBDEC0BF0A0
:101440003C0E1D6E000E1E6E010E1F6E7EEC0AF02D
:10145000400E2C6E100E2D6E3C0E2E6E000E2F6E5A
:10146000A0EC0BF0710E2C6E000E2D6E250E2E6E64
:10147000100E2F6E39C030F03AC031F01BEC0BF07B
:10148000000EBDEC0BF0710E1D6E000E1E6E000EF8
:101490001F6E7EEC0AF0050E8C26190E2C6E100EB7
:1014A0002D6E39C02EF03AC02FF0A0EC0BF0000EDC
:1014B0000001836F000E846F000E856F000E866F33
:1014C000000186BF0ED00001865113E1F00E00012D
:1014D000835DBA0E00018459040E00018559D8B00D
:1014E00008D0010E00018327000E84238523862364
:1014F000E7D7FB0E3926FF0E3A227ED7010E1F6476
:1015000001D012001FC016F0176A000E196E000EEF
:10151000186E3EEC0BF032D01DC0D9FF1EC0DAFFB2
:101520000A0EDE18D8A407D01F2A020E1F18D8A44E
:1015300002D0000E1F6E1DC0D9FF1EC0DAFF0D0EB7
:10154000DE18D8B408D01DC0D9FF1EC0DAFF0A0EBD
:10155000DE18D8A40AD01FC016F0176A000E196E44
:10156000000E186E3EEC0BF007D01DC0D9FF1EC058
:10157000DAFFDF5021EC0CF01D4A1E2A1DC0D9FFF6
:101580001EC0DAFFDF50D8B41200C6D7380E176E6F
:10159000D6EC0BF0820E166EDE0EE82EFED7162E5F
:1015A000FCD7175053EC0CF0850EE82EFED700F058
:1015B0000C0E53EC0CF0850EE82EFED700F0010E59
:1015C00053EC0CF0170E166E120EE82EFED7162EE8
:1015D000FCD700D0060E53EC0CF0850EE82EFED79B
:1015E00000F01200000E166E000E156E1250131051
:1015F000D8B41CD0010E146E04D0D8901236133615
:10160000142A13AEFAD7D890153616361250105C3D
:1016100013501158D8A005D01250105E1350115A13
:101620001580D89013321232142EEDD715C010F059
:1016300016C011F012002CC034F02DC035F0000E91
:10164000366E000E376E000E386E300E326E000EA3
:10165000336E340E1C6E000E1D6E2EC01EF02FC099
:101660001FF0320E206E000E216E23EC08F034C005
:10167000D9FF35C0DAFF000EDF6E120017BE120070
:1016800019BE120017BE06D017501AE1020E165CE2
:10169000D8B0120019BE06D0195012E1100E185C15
:1016A000D8B01200165012EC0CF01A6E1A50182412
:1016B0001B6E000E19201C6E1B50800F2CEC0CF0C2
:1016C000120019501A10D8B418D0010E1B6E04D095
:1016D000D89019361A361B2A1AAEFAD71950175C49
:1016E0001A501858D8A004D01950175E1A50185A1A
:1016F000D8901A3219321B2EF1D717C017F018C024
:1017000018F01200136E000E146E1250D8B402D0EE
:10171000800E146E14C010F0120EEEEC0BF013C01D
:1017200010F0130EEEEC0BF014504009106E120E78
:10173000EEEC0BF014C010F0120EEEEC0BF01200F9
:10174000000E326E000E336EC20E346E180E356E01
:10175000000E366E2E0E306E000E316E320E1C6E86
:10176000000E1D6E2CC01EF02DC01FF0300E206E1E
:10177000000E216E23EC08F012001E6E000E1D6E8E
:10178000010E1E6401D012001EC016F0176A000E72
:10179000196E000E186E3EEC0BF004D0200E21ECFA
:1017A0000CF01D2A0F0E1D64F9D712009294898443
:1017B0009496949A210EC66EC78C9E96000E106E5B
:1017C000000EEEEC0BF0000E106E010EEEEC0BF0C6
:1017D000000E106E120EEEEC0BF01200116E8994DA
:1017E000400EC96E9EA6FED79E9611C0C9FF9EA64A
:1017F000FED79E9610C0C9FF9EA6FED79E968984EE
:10180000120000EE60F0220EEE6AE806FDE100EE46
:1018100039F0140EEE6AE806FDE14D904D9200019C
:10182000E3EF09F0116E11B005D011500A0DF3CF9E
:1018300010F005D011500A0DF350360F106E1050F5
:101840001200156E72EC0CF0010E126E155082EC47
:101850000BF06DEC0CF01200156E72EC0CF0000E3B
:10186000126E155082EC0BF06DEC0CF01200000EB5
:101870008C6E000E956E010E936EF19E800E946E2E
:101880001200100EB06E040E7F6EAD847E86AD9891
:10189000AC8EAD8A1200160E106E8E0EE82EFED79C
:1018A000102EFCD71200156E000E126E155082EC31
:1018B0000BF01200D09EF19CF288F2923B68F28EFF
:1018C0001200106E9EA8FED710C0AEFF1200010ECF
:1018D0002CEC0CF04BEC0CF01200850EE82EFED731
:0618E00000F012001200EE
:020000040001F9
:06FFF800A0F4C5FFF8FFB4
:00000001FF
