:0400000051EF8EF03E
:10FE7E0000005EBCE2613FDD83C29C7E20A3FD1FBD
:10FE8E00419DC3217FFCA2401E5F01E3BD3E608207
:10FE9E00DC237D9FC1421CFEA0E1BF5D0380DE3CE2
:10FEAE0062BEE0025CDF81633D7C22C09E1D43A1E9
:10FEBE00FF4618FAA427799BC584DA3866E5BB5944
:10FECE0007DB856739BAE406581947A5FB7826C4BF
:10FEDE009A653BD987045AB8E6A7F91B45C6987AA6
:10FEEE0024F8A6441A99C7257B3A6486D85B05E7A1
:10FEFE00B98CD2306EEDB3510F4E10F2AC2F719310
:10FF0E00CD114FADF3702ECC92D38D6F31B2EC0E6E
:10FF1E0050AFF1134DCE90722C6D33D18F0C52B079
:10FF2E00EE326C8ED0530DEFB1F0AE4C1291CF2D50
:10FF3E0073CA947628ABF517490856B4EA6937D5D3
:10FF4E008B5709EBB536688AD495CB2977F4AA4836
:10FF5E0016E9B7550B88D6346A2B7597C94A14F62D
:10FF6E00A8742AC896154BA9F7B6E80A54D7896B18
:10FF7E0035010000000A00000064000000E80300E4
:10FF8E000010270000A086010040420F00809698C6
:10FF9E000000E1F50500CA9A3B00803FCDCC3DD76D
:10FFAE00233C12833AB7D138C62737388635C0D6A8
:10FFBE0033CC2B32708930E7DB2EE53C1E42A20D8E
:10FFCE0000803F00204100C842007A44401C465049
:10FFDE00C34724744997184BBCBE4C6B6E4E031529
:10FFEE005079AD60F3497154303D252E3266204371
:02FFFE00000001
:020000040001F9
:10000000440E0001856F000E0001866FD7D3250EC8
:1000100000019819D8B407D040C0D9FF41C0DAFF19
:1000200098C0DFFFC9D3000E0001886F000E876FF4
:1000300042C0F6FF43C0F7FF000EF86E0800F5500F
:100040002E0AD8A436D00001888D424A432A000ED9
:100050000001946F000E936F1FD093C00FF094C0F7
:1000600010F0000E126E0A0E116E14EC8FF042C0EA
:10007000F6FF43C0F7FF000EF86E0800F5500F269C
:10008000000E1022D00E0F240001936FFF0E1020DF
:100090000001946F424A432A42C0F6FF43C0F7FF73
:1000A000000EF86E0800F5504CEC8FF0D8A00CD084
:1000B000D4D7000E0001946F000E936F0001888961
:1000C00003D00001888514D042C0F6FF43C0F7FF7B
:1000D000424A432A000EF86E0800F5CF98F000015E
:1000E0009851000AD8B479D3660AD8B4EAD766D34F
:1000F000070E00018815D8B412D3000188A905D0D5
:10010000000E0001946F060E936F85C0D9FF86C064
:10011000DAFFDECF95F0DECF96F0DDCF97F0030E5D
:1001200000018527000E8623000197AF11D095C0EE
:1001300001F096C002F097C003F03AEC8FF001C0D6
:1001400095F002C096F003C097F0030E00018713EC
:10015000000E00018E6F000E8D6F000195510001A1
:10016000961100019711D8B48BD0820E476EFF0E06
:10017000486E95C049F096C04AF097C04BF098C0C1
:100180004CF0100E05D0D8904C324B324A324932E6
:10019000E82EF9D74950472400018D6F000E482002
:1001A00000018E6F00018D07D8A08E078DC00FF063
:1001B0008EC010F0000E126E030E116E14EC8FF054
:1001C0000FC08DF010C08EF08DC007F08EC008F00B
:1001D000000E0A6E0A0E096E16EC8CF007C08DF048
:1001E00008C08EF000018EAF04D000018D07D8A0AA
:1001F0008E0700018D510008F4EC83F024C08FF0CD
:1002000025C090F026C091F08FC015F090C016F078
:1002100091C017F095C018F096C019F097C01AF069
:10022000C8EC89F015C08FF016C090F017C091F09F
:100230008FC001F090C002F091C003F0000E046E78
:10024000800E056E3F0E066E86EC8BF0D8B005D0A2
:1002500000018D07D8A08E0713D08FC001F090C089
:1002600002F091C003F0000E046E200E056E410EE8
:10027000066E86EC8BF0D8A003D000018D4B8E2B40
:10028000000194BF08D0000194511DE10D0E000142
:10029000935DD8B018D095C02EF096C02FF097C0BF
:1002A00030F00001935110EC86F024C031F025C0ED
:1002B00032F026C033F045EC87F02EC095F02FC009
:1002C00096F030C097F000018EBF08D000018E512B
:1002D00026E10A0E00018D5DD8B021D000019551B4
:1002E0000001961100019711D8B45BD095C02BF096
:1002F00096C02CF097C02DF042EC8AF02B502C10B9
:100300002D102E10D8A44DD000018EBF4AD0000170
:100310008E5105E1020E00018D5DD8A042D08FC044
:1003200001F090C002F091C003F0700E046E890ECF
:10033000056E400E066E86EC8BF0D8B003D000013F
:10034000F70E02D00001F80E8D27FF0E8E2300015C
:100350008D51F4EC83F024C08FF025C090F026C0BE
:1003600091F095C001F096C002F097C003F08FC0E5
:1003700004F090C005F091C006F01BEC88F001C0BD
:1003800089F002C08AF003C08BF004C08CF0000E2C
:100390000001956F000E0001966F000E0001976F2F
:1003A00033D095C02BF096C02CF097C02DF042ECC6
:1003B0008AF02BC089F02CC08AF02DC08BF02EC0A3
:1003C0008CF095C03AF096C03BF097C03CF089C0E5
:1003D00009F08AC00AF08BC00BF08CC00CF071ECF5
:1003E0008DF009C03DF00AC03EF00BC03FF031EC8B
:1003F0008EF03AC095F03BC096F03CC097F0000EEE
:1004000000018E6F000E8D6F010E0001986F0A0EB5
:1004100000019819D8B421D000019851040D7F0E25
:10042000F324F66EFF0EF420F76EF86A000EF82241
:100430000900F5500001895D0900F55000018A5955
:100440000900F55000018B590900F55000018C5945
:10045000D8A003D00001982BDAD7030E000187152E
:10046000476E000E00018815486E47504810D8B4FA
:1004700056D040C0D9FF41C0DAFF2D0E4ED0404AC1
:10048000412A4DD089C001F08AC002F08BC003F030
:100490008CC004F000019851040D7F0EF324F66E19
:1004A000FF0EF420F76EF86A000EF8220900F5CF6F
:1004B00005F00900F5CF06F00900F5CF07F00A00B6
:1004C000F5CF08F058EC8CF001C08FF002C090F02E
:1004D00003C091F004C092F08FC001F090C002F010
:1004E00091C003F092C004F00A0E056E000E066E75
:1004F000000E076E000E086E0CEC8DF001C08FF040
:1005000002C090F003C091F004C092F000018F513E
:10051000300F40C0D9FF41C0DAFFDF6EB0D7000115
:10052000980700019829D8B40DD0ACD740C0D9FFA6
:1005300041C0DAFF300EDF6E404A412A00018D07CC
:10054000D8A08E0700018EBF07D000018E51EEE1CA
:1005500000018D05D8B0EAD7000194BF0CD000018E
:10056000945105E1090E0001935DD8A004D0080E56
:100570000001986F02D093C098F0000198510001DB
:10058000935F000E000198BFFF0E0001945B000115
:1005900098510001D8B408D040C0D9FF41C0DAFF5B
:1005A0002E0EDF6E404A412A00019851F4EC83F090
:1005B00024C082F025C083F026C084F095C018F0D6
:1005C00096C019F097C01AF082C015F083C016F0DB
:1005D00084C017F0C8EC89F015C02BF016C02CF0C1
:1005E00017C02DF042EC8AF02BC089F02CC08AF0A5
:1005F0002DC08BF02EC08CF078D089C001F08AC05D
:1006000002F08BC003F08CC004F000019851040D7F
:100610007F0EF324F66EFF0EF420F76EF86A000EDC
:10062000F8220900F5CF05F00900F5CF06F0090022
:10063000F5CF07F00A00F5CF08F058EC8CF001C0B8
:100640008FF002C090F003C091F004C092F08FC010
:1006500001F090C002F091C003F092C004F00A0EC5
:10066000056E000E066E000E076E000E086E0CEC96
:100670008DF001C08FF002C090F003C091F004C073
:1006800092F000018F51300F40C0D9FF41C0DAFF16
:10069000DF6E404A412A89C001F08AC002F08BC057
:1006A00003F08CC004F000019851040D7F0EF32478
:1006B000F66EFF0EF420F76EF86A000EF8220900BD
:1006C000F5CF05F00900F5CF06F00900F5CF07F0EA
:1006D0000A00F5CF08F00CEC8DF001C089F002C0E3
:1006E0008AF003C08BF004C08CF000019807000171
:1006F0009829D8B40DD081D740C0D9FF41C0DAFFC6
:10070000300EDF6E404A412A00019307D8A09407BB
:100710000001935100019411D8B450D0EDD70001DD
:10072000935100019411D8A40DD00001895100010A
:100730008A1100018B1100018C11D8A403D0000193
:10074000934B942B800E000198BF7F0E476E0001E3
:1007500093510001985D00019451800A4758D8B028
:1007600003D093C098F016D000019451800A476ED0
:10077000000198510001935D800E000198BF7F0E2B
:100780004758D8B007D0000198510001936F946B7F
:1007900093BF9407030E00018715476E000E0001FA
:1007A0008815486E47504810D8B408D040C0D9FFCB
:1007B00041C0DAFF2D0EDF6E404A412A42C0F6FFEB
:1007C00043C0F7FF424A432A000EF86E0800F5CFF7
:1007D00098F000019851D8A41AD440C0D9FF41C064
:1007E000DAFF000EDF6E12002A6E2AAE0DD12A6CDF
:1007F0002A50800A120FD8A09AD0000E126E030E53
:10080000116E000E0A6E0A0E096E000E046E640E62
:10081000036E2A50016E026A01BE0206D4EC8CF00F
:1008200001C007F002C008F016EC8CF0090E072496
:100830000F6E000E0820106E14EC8FF0A70E0F2420
:10084000F66EFF0E1020F76EF86A000EF82209000F
:10085000F5CF18F00900F5CF19F00A00F5CF1AF01E
:10086000000E0A6E640E096E2A50076E086A07BEF3
:10087000080616EC8CF0120E07240F6E000E0820EE
:10088000106E000E126E030E116E14EC8FF0A70E98
:100890000F24F66EFF0E1020F76EF86A000EF82295
:1008A0000900F5CF15F00900F5CF16F00A00F5CFD5
:1008B00017F0C8EC89F015C027F016C028F017C053
:1008C00029F027C015F028C016F029C017F0000E37
:1008D000126E030E116E000E046E0A0E036E2A5085
:1008E000016E026A01BE0206D4EC8CF001C00FF06A
:1008F00002C010F014EC8FF0A70E0F24F66EFF0E5E
:100900001020F76EF86A000EF8220900F5CF18F0F3
:100910000900F5CF19F00A00F5CF1AF0C8EC89F0FC
:1009200015C024F016C025F017C026F012002A507A
:10093000800A750FD8A053D0000E0A6E0A0E096EF9
:100940002A50076E086A07BE080616EC8CF0090EDE
:1009500007240F6E000E0820106E000E126E030E9C
:10096000116E14EC8FF0A70E0F24F66EFF0E102000
:10097000F76EF86A000EF8220900F5CF15F00900AD
:10098000F5CF16F00A00F5CF17F0000E126E030E29
:10099000116E000E046E0A0E036E2A50016E026A7A
:1009A00001BE0206D4EC8CF001C00FF002C010F0C2
:1009B00014EC8FF0A70E0F24F66EFF0E1020F76ECA
:1009C000F86A000EF8220900F5CF18F00900F5CFFB
:1009D00019F00A00F5CF1AF0C8EC89F0A1D72A5017
:1009E000030DA70EF324F66EFF0EF420F76EF86ADF
:1009F000000EF8220900F5CF24F00900F5CF25F00C
:100A00000A00F5CF26F012002A50800A120FD8A053
:100A10009AD0000E126E030E116E000E0A6E0A0EB0
:100A2000096E000E046E640E036E2A50016E026A97
:100A300001BE0206D4EC8CF001C007F002C008F041
:100A400016EC8CF0090E07240F6E000E0820106EB5
:100A500014EC8FF0CE0E0F24F66EFF0E1020F76E02
:100A6000F86A000EF8220900F5CF18F00900F5CF5A
:100A700019F00A00F5CF1AF0000E0A6E640E096E26
:100A80002A50076E086A07BE080616EC8CF0120E94
:100A900007240F6E000E0820106E000E126E030E5B
:100AA000116E14EC8FF0CE0E0F24F66EFF0E102098
:100AB000F76EF86A000EF8220900F5CF15F009006C
:100AC000F5CF16F00A00F5CF17F0C8EC89F015C085
:100AD00027F016C028F017C029F027C015F028C04D
:100AE00016F029C017F0000E126E030E116E000EE4
:100AF000046E0A0E036E2A50016E026A01BE0206DF
:100B0000D4EC8CF001C00FF002C010F014EC8FF0A8
:100B1000CE0E0F24F66EFF0E1020F76EF86A000E50
:100B2000F8220900F5CF18F00900F5CF19F00A00F6
:100B3000F5CF1AF0C8EC89F015C024F016C025F0E6
:100B400017C026F012002A50800A750FD8A053D083
:100B5000000E0A6E0A0E096E2A50076E086A07BE5A
:100B6000080616EC8CF0090E07240F6E000E082004
:100B7000106E000E126E030E116E14EC8FF0CE0E7E
:100B80000F24F66EFF0E1020F76EF86A000EF822A2
:100B90000900F5CF15F00900F5CF16F00A00F5CFE2
:100BA00017F0000E126E030E116E000E046E0A0E88
:100BB000036E2A50016E026A01BE0206D4EC8CF06C
:100BC00001C00FF002C010F014EC8FF0CE0E0F2415
:100BD000F66EFF0E1020F76EF86A000EF82209007C
:100BE000F5CF18F00900F5CF19F00A00F5CF1AF08B
:100BF000C8EC89F0A1D72A50030DCE0EF324F66E6F
:100C0000FF0EF420F76EF86A000EF8220900F5CF07
:100C100024F00900F5CF25F00A00F5CF26F01200E8
:100C20002D6E6D0E2D64A8D0000E126E030E116E87
:100C3000000E0A6E0A0E096E000E046E640E036E3C
:100C40002DC001F0026AD4EC8CF001C007F002C0A4
:100C500008F016EC8CF0090E07240F6E000E082029
:100C6000106E14EC8FF0A70E0F24F66EFF0E1020FE
:100C7000F76EF86A000EF8220900F5CF18F00900A7
:100C8000F5CF19F00A00F5CF1AF0000E0A6E640EC7
:100C9000096E2DC007F0086A16EC8CF0120E0724BE
:100CA0000F6E000E0820106E000E126E030E116EF5
:100CB00014EC8FF0A70E0F24F66EFF0E1020F76EC7
:100CC000F86A000EF8220900F5CF15F00900F5CFFB
:100CD00016F00A00F5CF17F0C8EC89F015C02AF01D
:100CE00016C02BF017C02CF0000E126E030E116E02
:100CF000000E046E0A0E036E2DC001F0026AD4ECE1
:100D00008CF001C00FF002C010F014EC8FF0A70EB1
:100D10000F24F66EFF0E1020F76EF86A000EF82210
:100D20000900F5CF18F00900F5CF19F00A00F5CF4A
:100D30001AF02AC015F02BC016F02CC017F0C8EC22
:100D400089F015C027F016C028F017C029F027C079
:100D500015F028C016F029C017F0000E186E000E0E
:100D6000196E3F0E1A6EC8EC89F015C024F016C03B
:100D700025F017C026F012000A0E2D6463D0000E75
:100D8000126E030E116E000E046E0A0E036E2DC05D
:100D900001F0026AD4EC8CF001C00FF002C010F038
:100DA00014EC8FF0A70E0F24F66EFF0E1020F76ED6
:100DB000F86A000EF8220900F5CF18F00900F5CF07
:100DC00019F00A00F5CF1AF0000E0A6E0A0E096E2D
:100DD0002DC007F0086A16EC8CF0090E07240F6E80
:100DE000000E0820106E000E126E030E116E14EC31
:100DF0008FF0A70E0F24F66EFF0E1020F76EF86A24
:100E0000000EF8220900F5CF15F00900F5CF16F015
:100E10000A00F5CF17F0C8EC89F015C02AF016C00B
:100E20002BF017C02CF02AC015F02BC016F02CC0E8
:100E300017F0000E186E000E196E3F0E1A6EC8ECF9
:100E400089F093D72D50030DA70EF324F66EFF0EF5
:100E5000F420F76EF86A000EF8220900F5CF15F0BD
:100E60000900F5CF16F00A00F5CF17F0000E186E46
:100E7000000E196E3F0E1A6EC8EC89F015C024F0F2
:100E800016C025F017C026F0120030C034F0356AC5
:100E9000366A2F34343601E335803450396E33C02E
:100EA00034F0356A366A3234343601E335803450F2
:100EB000386E3950D8B40BD03850395CD8B00ED019
:100EC000395000083824346E180E346407D031C00D
:100ED0002EF032C02FF033C030F012003850D8B4AA
:100EE0000BD03950385CD8B00ED0385000083924B7
:100EF000346E180E346407D02EC02EF02FC02FF0A1
:100F000030C030F01200060E376E30BE378E33BE62
:100F1000378C2F8EFF0E2E16FF0E2F16000E30165A
:100F2000328EFF0E3116FF0E3216000E3316385079
:100F3000395CD8B01BD0D8903136323633363806CB
:100F400039503818D8B40DD0370637C034F0070EF2
:100F50003416D8B406D0EFD7D89030322F322E3294
:100F6000392A38503918D8B41FD0F6D73950385CE0
:100F7000D8B01AD0D8902E362F36303639063950A0
:100F80003818D8B40DD0370637C034F0070E3416F1
:100F9000D8B406D0EFD7D890333232323132382A33
:100FA00038503918D8A4F7D737AE0CD0FF0E2E1A08
:100FB000FF0E2F1AFF0E301A010E2E26000E2F22C2
:100FC000000E302237AC0CD0FF0E311AFF0E321A51
:100FD000FF0E331A010E3126000E3222000E33228C
:100FE000000E376E2E5031262F50322230503322D1
:100FF00033AE0ED0FF0E311AFF0E321AFF0E331A27
:10100000010E3126000E3222000E3322010E376E01
:1010100031C001F032C002F033C003F039C004F037
:1010200037C005F02FEC8BF001C02EF002C02FF07E
:1010300003C030F0120003C007F0086A096A0234E6
:10104000073601E3088007500F6E0F50D8A409D06F
:10105000000E016E000E026E000E036E000E046E96
:10106000120006C007F0086A096A0534073601E372
:10107000088007500E6E0E50D8A409D0000E016EE5
:10108000000E026E000E036E000E046E1200028E41
:10109000FF0E0116FF0E0216000E0316058EFF0E40
:1010A0000416FF0E0516000E0616000E0A6E000E40
:1010B0000B6E000E0C6E000E0D6E7F0E0F5E0E504E
:1010C000980F0F5E180E0E6ED8900A360B360C363F
:1010D0000D360450015C0550025806500358D8A044
:1010E00007D00450015E0550025A0650035A0A8088
:1010F000D8900136023603360E2EE6D70FAE16D044
:101100000F50800A970FD8B009D0000E016E000E64
:10111000026E000E036E000E046E1200D8900D32A7
:101120000C320B320A320F3EF9D715D0170E0F646E
:101130000FD0000E016E000E026E000E036E000E48
:10114000046E1200D8900A360B360C360D360F0698
:101150000F50D8A4F7D70AC001F00BC002F00CC0A2
:1011600003F00DC004F01200033404340C6E0C5074
:10117000D8A409D0000E016E000E026E000E036EA0
:10118000000E046E1200063407340B6E0B50D8A408
:1011900009D0000E016E000E026E000E036E000EEE
:1011A000046E1200038EFF0E0116FF0E0216FF0ED4
:1011B0000316000E0416068EFF0E0416FF0E05160B
:1011C000FF0E0616000E0716000E076E000E086EC4
:1011D000000E096E000E0A6E7F0E0C5E0B50A00F03
:1011E0000C5E200E0B6ED8900736083609360A368C
:1011F0000450015C0550025806500358075004582B
:10120000D8A009D00450015E0550025A0650035A76
:101210000750045A0780D890013602360336043648
:101220000B2EE1D70CAE16D00C50800A9F0FD8B011
:1012300009D0000E016E000E026E000E036E000E4D
:10124000046E1200D8900A320932083207320C3E7E
:10125000F9D715D01F0E0C640FD0000E016E000ED2
:10126000026E000E036E000E046E1200D890073658
:10127000083609360A360C060C50D8A4F7D707C032
:1012800001F008C002F009C003F00AC004F0120027
:1012900010EC8EF01C501D10D8A404D0CC0EEEEC37
:1012A0008DF00DD0550EEEEC8DF01CC003F01DC07E
:1012B00004F0000E066E080E056EC6EC8EF0440EAD
:1012C000EEEC8DF091809A90000E206E4A0E206414
:1012D00001D009D0820E1F6EDE0EE82EFED71F2E23
:1012E000FCD7202AF3D79A80919010EC8EF01C50F6
:1012F0001D10D8A404D0CC0EEEEC8DF00DD0550E00
:10130000EEEC8DF01CC003F01DC004F0000E066E64
:10131000080E056EC6EC8EF0BE0EEEEC8DF0210EC2
:10132000036E000E046E000E066E090E056EE1ECF3
:101330008EF0210E016E000E026E000E046E090E7C
:10134000036E3FEC8DF00009D8B41BD021C009F02A
:1013500022C00AF08EEC8EF009C00DF00AC00EF02B
:101360000BC00FF0000E106E000E116E400E126ECC
:10137000BCEC8AF00DC01CF00EC01DF00FC01EF0BA
:101380001200FA0E1C6E790E1D6EC40E1E6E120037
:1013900017C01BF01C6A1D6A16341B3601E31C8043
:1013A0001B501E6E1E50D8A407D0000E156E000EE6
:1013B000166E000E176E12001AC01BF01C6A1D6A12
:1013C00019341B3601E31C801B50236E2350D8A414
:1013D00007D0000E156E000E166E000E176E12006E
:1013E00023507B0F1E2617C023F01A50231A800E9D
:1013F0002316168E198EFF0E1816FF0E1916000EE4
:101400001A16000E1F6E000E206E000E216E070EC3
:10141000226E15A006D018501F26195020221A50EF
:101420002122D890173216321532D8901836193634
:101430001A36222EEED7090E226E15A006D01850AD
:101440001F26195020221A502122D8901732163206
:101450001532D890213220321F32222EEED71FC0F3
:1014600001F020C002F021C003F01EC004F023C030
:1014700005F02FEC8BF001C015F002C016F003C090
:1014800017F012002DC02FF0306A316A2C342F363D
:1014900001E330802F50396E3950D8A409D0000EA6
:1014A0002B6E000E2C6E000E2D6E000E2E6E120096
:1014B000170E2F6E2BC030F02CC031F02DC032F043
:1014C0002F28336E04D0D890323231323032332E5E
:1014D000FAD73050346E2C8EFF0E2B16FF0E2C16C2
:1014E000000E2D162B50356E2C50366E2D50376E4B
:1014F000386A8E0E395E39AE16D03950800A8F0F99
:10150000D8B009D0000E2B6E000E2C6E000E2D6E82
:10151000000E2E6E1200D890383237323632353205
:10152000393EF9D715D0170E39640FD0000E2B6E47
:10153000000E2C6E000E2D6E000E2E6E1200D89036
:10154000353636363736383639063950D8A4F7D7D7
:101550003450D8B408D0381E371E361E356C000EF5
:1015600036223722382235C02BF036C02CF037C057
:101570002DF038C02EF012000FC013F0146A156A57
:101580000E34133601E3148013501A6E1A50D8A487
:1015900007D0000E0D6E000E0E6E000E0F6E1200C4
:1015A00012C013F0146A156A1134133601E3148063
:1015B00013501B6E1B50D8A407D0000E0D6E000EEA
:1015C0000E6E000E0F6E1200000E176E000E186EDB
:1015D000000E196E1B50890F1A5E0FC01BF01250BF
:1015E0001B1A800E1B160E8EFF0E0D16FF0E0E160A
:1015F000000E0F16118EFF0E1016FF0E1116000EA4
:101600001216180E166ED890173618361936105056
:101610000D5C11500E5812500F58D8A007D0105022
:101620000D5E11500E5A12500F5A1780D8900D3679
:101630000E360F36162EE7D717C001F018C002F08D
:1016400019C003F01AC004F01BC005F02FEC8BF09A
:1016500001C00DF002C00EF003C00FF012000450E4
:10166000D8B405D0015002100310D8A40CD0000E3D
:10167000016E000E026E000E036E1200042AD89056
:10168000033202320132000E0114066E000E021403
:10169000076EFE0E0314086E065007100810D8B42B
:1016A0000CD0ECD7042A010E0126000E0222000EF7
:1016B0000322D890033202320132000E0114066E6A
:1016C000000E0214076EFF0E0314086E065007107A
:1016D0000810D8B406D0E6D70406D89001360236F2
:1016E000033602BE03D0020E0460F6D704A0029EA9
:1016F000D8900432045003120550D8A4038E01C0C0
:1017000001F002C002F003C003F0120003AE16D0D5
:1017100001C007F002C008F003C009F0071E081E50
:10172000091E072A000E08220922000E0724016E56
:10173000000E0820026E800E0920036E06AE16D041
:1017400004C007F005C008F006C009F0071E081E17
:10175000091E072A000E08220922000E0724046E23
:10176000000E0820056E800E0920066E000E011A7C
:10177000000E021A800E031A000E041A000E051A3B
:10178000800E061A0450015C05500258065003589A
:10179000D8B002D0D8901200D8801200010E106488
:1017A00001D0120010C007F0086A000E0A6E000E89
:1017B000096ECBEC8DF032D00EC0D9FF0FC0DAFF2E
:1017C0000A0EDE18D8A407D0102A020E1018D8A4CA
:1017D00002D0000E106E0EC0D9FF0FC0DAFF0D0E42
:1017E000DE18D8B408D00EC0D9FF0FC0DAFF0A0E39
:1017F000DE18D8A40AD010C007F0086A000E0A6EDE
:10180000000E096ECBEC8DF007D00EC0D9FF0FC0D3
:10181000DAFFDF506AEC8FF00E4A0F2A0EC0D9FFB4
:101820000FC0DAFFDF50D8B41200C6D7000E0C6E1E
:101830000AAE06D0096C0A1ED8B00A2A010E0C6E38
:1018400008AE06D0076C081ED8B0082A010E0C1A84
:10185000000E0E6E000E0D6E09500A10D8B41CD08A
:10186000010E0B6E04D0D89009360A360B2A0AAE48
:10187000FAD7D8900D360E360950075C0A50085832
:10188000D8A005D00950075E0A50085A0D80D8909C
:101890000A3209320B2EEDD70C50D8B404D00D6C9F
:1018A0000E1ED8B00E2A0DC007F00EC008F01200B0
:1018B000000E096E000E0A6E000E0B6E000E0C6E0E
:1018C0000550061007100810D8B42AD0010E0D6E6E
:1018D00006D0D89005360636073608360D2A08AEEB
:1018E000F8D7D89009360A360B360C360550015C0D
:1018F000065002580750035808500458D8A009D081
:101900000550015E0650025A0750035A0850045A07
:101910000980D89008320732063205320D2EE1D701
:1019200009C001F00AC002F00BC003F00CC004F0C3
:101930001200000E506E000E516E000E526E000E20
:101940004D6E000E4E6E000E4F6E000E956E9B8C0F
:101950009FEC8DF097EC8FF0A2EC8FF0000E1C6ED8
:10196000000E1D6E48EC89F01CC050F01DC051F0F7
:101970001EC052F08C70710E406E000E416EF50E5E
:10198000426EFF0E436E50C044F051C045F052C04D
:1019900046F000EC80F0710E0E6E000E0F6E000E21
:1019A000106ECEEC8BF0DAD7000E066E02AE06D0CB
:1019B000016C021ED8B0022A010E066E04AE04D0DD
:1019C000036C041ED8B0042A03500410D8B418D0F5
:1019D000010E056E04D0D89003360436052A04AEF5
:1019E000FAD70350015C04500258D8A004D0035029
:1019F000015E0450025AD89004320332052EF1D70A
:101A00000650D8B404D0016C021ED8B0022A01C01E
:101A100001F002C002F01200055006100710081075
:101A2000D8B424D0010E096E06D0D89005360636FB
:101A300007360836092A08AEF8D70550015C06506B
:101A400002580750035808500458D8A008D0055031
:101A5000015E0650025A0750035A0850045AD890A3
:101A60000832073206320532092EE7D701C001F0ED
:101A700002C002F003C003F004C004F01200000E24
:101A8000086E000E096E19D00950010DF3500124A3
:101A9000D96EF4500220DA6EDF500818056E066A1F
:101AA0007F0E0524F66EFE0E0620F76EF86A000E15
:101AB000F8220800F5CF08F0092A0950056E066AD9
:101AC0000350055C0650800A076E0450800A0758D0
:101AD000D8A0DAD70850D8A402D0010E1200000E08
:101AE00012008E0E116E06D0D8900C320B320A32D4
:101AF0000932112A000E09140D6E000E0A140E6E22
:101B0000000E0B140F6EFF0E0C14106E0D500E1005
:101B10000F101010D8A4E8D709C001F00AC002F0D5
:101B20000BC003F011C004F0000E056E2FEC8BF01B
:101B300001C009F002C00AF003C00BF01200380E19
:101B4000086EFCEC8EF0820E076EDE0EE82EFED7DD
:101B5000072EFCD7085090EC8FF0850EE82EFED7AC
:101B600000F00C0E90EC8FF0850EE82EFED700F002
:101B7000010E90EC8FF0170E076E120EE82EFED7B6
:101B8000072EFCD700D0060E90EC8FF0850EE82EC5
:101B9000FED700F0120008BE12000ABE120008BEF6
:101BA00006D008501AE1020E075CD8B012000ABE37
:101BB00006D00A5012E1100E095CD8B0120007508E
:101BC0005BEC8FF00B6E0B5009240C6E000E0A209C
:101BD0000D6E0C50800F75EC8FF01200016E000E30
:101BE000026E070E026401D0120001A00BD09A9081
:101BF000060EE82EFED700D09A80C40EE82EFED73F
:101C000000D006D09A90CB0EE82EFED700F09A8036
:101C1000D8900132030EE82EFED700F0022AE1D759
:101C20009A90070E016E3A0EE82EFED7012EFCD7D1
:101C300000D09A80C80E00F0E82EFDD7000E88B0C4
:101C4000010E026E060E016E300EE82EFED7012E3A
:101C5000FCD700D00250D8A402D0010E1200000E12
:101C600012003D503E103F10D8B406D0000E3D1A71
:101C7000000E3E1A800E3F1A3AC02EF03BC02FF0E5
:101C80003CC030F03DC031F03EC032F03FC033F0D8
:101C900045EC87F02EC03AF02FC03BF030C03CF04E
:101CA000120000EE60F0220EEE6AE806FDE100EEA2
:101CB00053F00A0EEE6AE806FDE1000EF66E1F0E06
:101CC000F76E010EF86E00EE99F010EE10F00900BC
:101CD000F5CFEEFFE550E150FAE1000199EF8CF00D
:101CE000046E000E056E0350D8B402D0800E056E4F
:101CF00005C001F0120E27EC8FF004C001F0130EA6
:101D000027EC8FF005504009016E120E27EC8FF082
:101D100005C001F0120E27EC8FF01200000E0C6EC1
:101D20000AAE06D0096C0A1ED8B00A2A010E0C6E43
:101D300009C001F00AC002F0036A8E0E046E0CC0E6
:101D400005F02FEC8BF001C009F002C00AF003C0CF
:101D50000BF01200000E016E000E026E070E026400
:101D600001D012D0D89001329A90030EE82EFED7FF
:101D700000F09A80280EE82EFED788B0018EA00EC3
:101D8000E82EFED7022AEAD701501200000E096E93
:101D9000000E086E0BD008500324D96E09500420A1
:101DA000DA6EDF50EEEC8DF0084A092A0550085C27
:101DB0000950800A076E0650800A0758D8B01200F2
:101DC000EAD7000E096E000E086E0BD008500324EF
:101DD000D96E09500420DA6EAAEC8EF0DF6E084A44
:101DE000092A0550085C0950800A076E0650800ACF
:101DF0000758D8B01200EAD7929489849496949A9E
:101E0000210EC66EC78C9E96000E016E000E27EC4A
:101E10008FF0000E016E010E27EC8FF0000E016EA8
:101E2000120E27EC8FF012000F501102F3CF13F0B7
:101E3000F4CF14F00F501202F35014261050110278
:101E4000F350142613C00FF014C010F01200026EED
:101E50008994400EC96E9EA6FED79E9602C0C9FF09
:101E60009EA6FED79E9601C0C9FF9EA6FED79E964F
:101E700089841200015002100310D8B406D0000E5D
:101E8000011A000E021A800E031A01C001F002C0EE
:101E900002F003C003F01200036E000E026E3A0E51
:101EA000036005D02F0E036402D0010E026E02C043
:101EB00001F001301200026E02B005D002500A0D8E
:101EC000F3CF01F005D002500A0DF350360F016E2A
:101ED00001501200066EA6EC8FF0010E036E065044
:101EE00070EC8EF09DEC8FF01200066EA6EC8FF079
:101EF000000E036E065070EC8EF09DEC8FF0120019
:101F000028FE15CE0400006310A214D502080013A9
:101F1000160E016E8E0EE82EFED7012EFCD7120093
:101F2000066E000E036E065070EC8EF01200010E6D
:101F300075EC8FF088EC8FF01200850EE82EFED73E
:0E1F400000F012009A8091909A801200120018
:06FFF800A0F4C5FFF8FFB4
:00000001FF
