:0400000058EF00F0C5
:100008005182FACF2AF0FBCF2BF0E9CF2CF0EACFC0
:100018002DF0E1CF2EF0E2CF2FF0D9CF30F0DACFAC
:1000280031F0F3CF32F0F4CF33F0F6CF34F0F7CF2E
:1000380035F0F8CF36F0F5CF37F09EA817D0440E3C
:100048001424D96E000E1520DA6EDF50AE6E144AF5
:10005800152A440E1424D96E000E1520DA6EDF50CE
:10006800D8A404D0000E156E000E146E37C0F5FF2C
:1000780036C0F8FF35C0F7FF34C0F6FF33C0F4FFD1
:1000880032C0F3FF31C0DAFF30C0D9FF2FC0E2FF22
:100098002EC0E1FF2DC0EAFF2CC0E9FF2BC0FBFFFB
:1000A8002AC0FAFF51921100BEEF01F0000E136E44
:1000B800000E126E12C014F013C015F09B8C30ECB9
:1000C80001F051EC02F03BEC02F029EC02F05CECA0
:1000D80002F0AD8A9EAAFED7AFCF66F066C0AEFF2B
:1000E800160E1224D96E000E1320DA6E66C0DFFFDA
:1000F800160E1224D96E000E1320DA6E0D0EDE18BD
:10010800D8A41BD0160E1224D96E000E1320DA6E56
:10011800000EDF6E000E82EC01F0160E0001626F19
:10012800000E0001636F000E0001646FE3EC00F045
:10013800000E136E000E126E0AD013BE06D01350B6
:1001480006E1100E125CD8B002D0124A132A300E03
:1001580000016619D8A402D08C70BCD7310E0001FA
:100168006619D8A402D08C72B5D7320E0001661970
:10017800D8A402D08C74AED7330E00016619D8A467
:1001880002D08C76A7D7340E00016619D8A402D005
:100198008C78A0D7350E00016619D8A402D08C7AC5
:1001A80099D7360E00016619D8A402D08C7C92D754
:1001B800370E00016619D8A48DD78C7E8BD7010E17
:1001C8000001646501D0120064C03EF03F6A000E71
:1001D800416E000E406E5CEC01F036D062C0D9FF73
:1001E80063C0DAFF0A0EDE18D8A40AD00001642B17
:1001F800020E00016419D8A403D0000E0001646F38
:1002080062C0D9FF63C0DAFF0D0EDE18D8B408D07B
:1002180062C0D9FF63C0DAFF0A0EDE18D8A40AD07C
:1002280064C03EF03F6A000E416E000E406E5CEC0A
:1002380001F007D062C0D9FF63C0DAFFDF5013ECCA
:1002480002F00001624B632B62C0D9FF63C0DAFF82
:10025800DF50D8B41200C2D7380E3F6ED9EC01F087
:10026800820E3E6EDE0EE82EFED73E2EFCD73F50A5
:1002780043EC02F0850EE82EFED700F00C0E43EC9E
:1002880002F0850EE82EFED700F0010E43EC02F0D6
:10029800170E3E6E120EE82EFED73E2EFCD700D06B
:1002A800060E43EC02F0850EE82EFED700F0120091
:1002B8003FBE120041BE12003FBE06D03F501DE1B6
:1002C800020E3E5CD8B0120041BE06D0415015E186
:1002D800100E405CD8B012003E5004EC02F0426EA2
:1002E800425040240001606F000E41200001616F00
:1002F80000016051800F1EEC02F012000001636FD4
:10030800000E0001626F010E0001636501D012004A
:1003180063C03EF03F6A000E416E000E406E5CEC1A
:1003280001F005D0200E13EC02F00001622B0F0E35
:1003380000016265F7D712003B6E000E3C6E3A5022
:10034800D8B402D0800E3C6E3CC038F0120EF1ECEE
:1003580001F03BC038F0130EF1EC01F03C504009BD
:10036800386E120EF1EC01F03CC038F0120EF1ECD0
:1003780001F0120000EE01F0290EEE6AE806FDE138
:10038800940EF66E040EF76E000EF86E00EE44F052
:1003980010EE0DF00900F5CFEEFFE550E150FAE15F
:1003A8005190519200015AEF00F0929489849496EA
:1003B800949A210EC66EC78C9E96000E386E000E5B
:1003C800F1EC01F0000E386E010EF1EC01F0000EB8
:1003D800386E120EF1EC01F01200396E8994400E5D
:1003E800C96E9EA6FED79E9639C0C9FF9EA6FED7A7
:1003F8009E9638C0C9FF9EA6FED79E968984120095
:10040800396E39B005D039500A0DF3CF38F005D020
:1004180039500A0DF350360F386E385012003D6EC1
:1004280060EC02F0010E3A6E3D50A0EC01F057EC82
:1004380002F012003D6E60EC02F0000E3A6E3D5084
:10044800A0EC01F057EC02F01200080EB06E020E9C
:100458007F6EAD847E86AD98AC8EAC881200160E89
:10046800386E8E0EE82EFED7382EFCD71200000EFE
:100478008C6E000E956E9380800E946E12003D6E09
:10048800000E3A6E3D50A0EC01F0120048656C6C0D
:100498006F20576F726C640A0000010E1EEC02F0A8
:1004A80033EC02F01200850EE82EFED700F01200A1
:0A04B800D09EF28CF28E12001200AA
:020000040001F9
:06FFF800A0F4C5FFF8FFB4
:00000001FF
